:1000000000000320D1010000C91700008117000083
:100010008117000081170000811700008117000080
:10002000811700008117000081170000C917000028
:10003000C917000081170000351F0000392000009B
:10004000C9170000C9170000C9170000C917000030
:10005000C9170000C9170000C9170000C917000020
:10006000C9170000C9170000C9170000C917000010
:10007000C9170000C9170000C9170000C917000000
:10008000C9170000C9170000C9170000C9170000F0
:10009000C9170000C9170000C9170000C9170000E0
:1000A000C9170000C9170000C9170000C9170000D0
:1000B000C9170000C9170000C9170000A5180000E3
:1000C000C9170000D1190000C9170000FD1A00006F
:1000D000C9170000F51B0000C9170000C917000070
:1000E000C9170000C9170000C9170000C917000090
:1000F000C9170000C9170000C9170000C917000080
:10010000C9170000C9170000C9170000C91700006F
:10011000C9170000B50B0000C9170000C91700007F
:10012000C9170000C9170000C9170000C91700004F
:10013000C9170000C9170000C9170000C91700003F
:10014000C9170000C9170000D5090000C917000031
:10015000C9170000C9170000C9170000C91700001F
:10016000C9170000C9170000C9170000C91700000F
:10017000C9170000C9170000C9170000C9170000FF
:10018000C9170000C9170000C9170000C9170000EF
:10019000C9170000C9170000ED1C0000C9170000B6
:1001A000C9170000C9170000C9170000C9170000CF
:1001B000C9170000C9170000C9170000C9170000BF
:1001C000C9170000C9170000C9170000C9170000AF
:1001D0005C4B4CF2205210B51A804DF628121A8052
:1001E00000BF00BF01F0F4FA574B4FF030621A60C5
:1001F000564A9A60564ADA60564B4FF470021A60BB
:10020000554B564A1A60564A136813F4807304D14A
:1002100054490B604FF4A8531360534B1A781107DD
:1002200003D51A7842F008021A70504B5049AA229E
:100230001A70504A504B8B4204D252F8040F43F8C4
:10024000040BF8E74D4B4E4900228B4202D243F893
:10025000042BFAE74B494C4A002352F8230041F89B
:1002600023000133742BF8D1484B494A802103F80D
:10027000011B9342FBD1474B424A1A60464B8A22EC
:100280001A70A3F5805324225A70A0221A709A790A
:100290009207FCD59A79D406FCD4404A937903F0AE
:1002A0000C03082BFAD13E4B60221A7002331A78E5
:1002B000802AFCD1394B01221A715D225A719A7938
:1002C0009006FCD59979354A4906FBD5354B364918
:1002D00019600021596020231370937903F00C03F7
:1002E0000C2BFAD1314B324A1A60324B324A1A6027
:1002F00000225A60072243F8042C304AC3F80C2D20
:1003000062B600F0F7F9174B1B68DA0705D52C48E1
:1003100000F080F92B4B2C4A1A602C4B1B785B06A3
:1003200009D5284C284B22689A4204D1244800F071
:1003300071F90023236001F0BBFE01F04FFA01F0D8
:1003400045F9FEE70E20054030800440823F04005E
:100350000100002B88ED00E0002008E0030000858C
:1003600010D0034014D0034002D0074000E0074003
:10037000100CFF1F5C2400003007FF1F100CFF1F34
:100380005810FF1F0002FF1F0000000000E400E003
:1003900064E400E008ED00E0005006400040064044
:1003A00001E007404480044000000602048004404D
:1003B000C010070014E000E01FBF02000000202072
:1003C00041037D5C1CE00340A5C3945A00F0074044
:1003D000FFFFFFFFFFFFFFFFFFFFFFFFFFFFFFFF2D
:1003E000FFFFFFFFFFFFFFFFFFFFFFFFFFFFFFFF1D
:1003F000FFFFFFFFFFFFFFFFFFFFFFFFFFFFFFFF0D
:10040000FFFFFFFFFFFFFFFFFFFFFFFFDEF9FFFF23
:1004100010B5054C237833B9044B13B10448AFF33E
:1004200000800123237010BD100CFF1F000000008E
:1004300060240000084B10B51BB108490848AFF311
:1004400000800848036803B910BD074B002BFBD0A0
:10045000BDE81040184700BF00000000140CFF1F4B
:1004600060240000100CFF1F0000000038B50E4D86
:100470000E4C43F2D40000F045FA2878012100F038
:10048000E1F82878002100F0D7F82078012100F069
:10049000D9F82078002100F0CFF8054B0121187819
:1004A000BDE8384000F0CEB83807FF1F3007FF1F07
:1004B0003407FF1F08B5122000F072FA002000F088
:1004C0006FFA002000F06CFA0A2000F0C1F8132047
:1004D00000F066FA1C4D1D4C002000F061FA00206F
:1004E00000F05EFA0121287800F0A6F841F2883089
:1004F00000F0AEF80021207800F09EF8122000F005
:100500004FFA002000F04CFA002000F049FA0A20CF
:1005100000F09EF8132000F043FA002000F040FAAB
:10052000002000F03DFA0021287800F085F841F223
:10053000883000F08DF82078012100F07DF841F23C
:10054000883000F085F8FEE73407FF1F3807FF1FEB
:1005500010B4114B53F8302092F8804234B101238B
:1005600079B182F880305DF8044B704703EBC0032B
:100570005B681A6851B922F002021A605DF8044BF8
:10058000704782F800315DF8044B704742F0030277
:100590001A605DF8044B7047EC2100001C4A02EB26
:1005A000C00301295B6811D004291BD052F8300028
:1005B000002280F8802229B1022920D0032922D0EC
:1005C0001A6070474FF480721A60704752F830001A
:1005D0004FF4A27280F880121A601A6822F020028A
:1005E0001A60704752F830104FF4A272012081F85F
:1005F00080021A601A6842F020021A60704740F2C6
:1006000003121A6070474FF481721A60704700BF7E
:10061000EC21000030B4054B054D064C00221021A2
:100620001A602A602060196030BC704714D0034003
:1006300004D0034000D003403F2801D8FFF788BF13
:10064000704700BF3F2801D8FFF7A8BF704700BF21
:100650002DE9F843054672B6224F234B234A1B6807
:100660003C68126862B6520102D5322B88BF013451
:10067000B5B3C3F52F3303F21F331D4EDFF8689077
:10068000DFF868809B084FF47A72A6FB031302FB25
:1006900004F404EB930472B6D9F800103A68D8F861
:1006A00000E062B6C1F52F3303F21F339B08A6FBAF
:1006B00003031EF0806FC4EB93034FF47A7002D0F3
:1006C000322988BF013200FB0233B3F57A7F04D3AD
:1006D000013D05D004F57A74DDE700F07FFFDAE72D
:1006E000BDE8F8832C0CFF1F18E000E004ED00E0EB
:1006F000176CC116F8B54E4B4E48DFF85CC14E4C36
:100700004E49DFF858E14E4E4E4D4F4F4FF00062CC
:100710001A604FF080521A604FF000521A604FF08A
:1007200080421A604FF000421A60002202602823C3
:100730004EF6FF70CCF80000CEF8003023600EF5C6
:10074000012E0B6033602B6006F500263B6005F53B
:100750000025A36207F500278B6204F5012401F54B
:10076000012106F6E87605F6E87507F57F67103192
:100770000EF1100E203433602B60CEF800303B6059
:100780000B602360314CBB618B6109212160A7F5AF
:10079000002704F58054203F08343A602060BB6095
:1007A000E36047F8041C04F5FD2407F5FE27043731
:1007B00004F2FC7422603860A360FB6044F8041CFF
:1007C000083404F6FC74C7F8FC2F2060A4F5E1247B
:1007D000A4F2DC7433602B60C7F8F81F21681C4852
:1007E00041F40071216001681A4C0EF57F4E0EF144
:1007F000E80E07F5883706F5803605F5803541F0B7
:1008000000710160CEF8002047F6FF7108223960C0
:1008100033602B60226000F043FF1920FFF718FFC0
:1008200000F0F4FD40F21310BDE8F840FFF710BFF0
:1008300004E100E004800340148003401C80034076
:10084000248003402C800340348003400080034018
:100850000480044000900C40088003400C8003405A
:100860002DE9F84F214B1B6807460BB101221A7086
:10087000DFF888901E4D99F80040DFF884801D4E07
:100880000134272C8ABF4FF0000A5FFA84FA5446DD
:10089000AB462B78A34216D100F0A2FF40281FDC04
:1008A00033791B06F5D59BF800300133272B86BF23
:1008B00000221346DAB218F80330DBB2F3712A7063
:1008C0002B78A342E8D00C490A4BFFB208F8047019
:1008D0000120AC22087089F800A0DA70BDE8F88F1A
:1008E000FF28D6DD00F07AFED3E700BFA40CFF1F7F
:1008F000A10CFF1F00A00E40A00CFF1FA80CFF1FA3
:10090000380CFF1F1B4BDFF890C01A681A49F0B56E
:1009100042F48062194D1A60DFF880E0184F194EDA
:10092000194C00238CF800304FF451722B701F28A3
:1009300040F213358EF800303B70337025600A604A
:1009400011D819460124114A114D117011485470E3
:1009500000212C2740269372042491701174D770C3
:100960002E700460F0BDC0F34431C0F3471400F0B2
:100970001F03E8E72880044060D00440350CFF1FC7
:10098000A10CFF1FA00CFF1F64D0044000A00E406C
:1009900042E400E008E100E0340CFF1FA80CFF1F58
:1009A000034B1B685B0501D5FFF75ABF704700BFBB
:1009B00028800440054A064B10781B78C0B2DBB291
:1009C000984238BF4030C01A704700BF340CFF1F38
:1009D000350CFF1F30B42B4B1A7994061FD52A48CB
:1009E000DA790378294901333F2B0978C8BF0023FE
:1009F0008B42D2B203D0264CD9B2E2540170254AC0
:100A0000116861B1244A1278D2B2934236BFC2F162
:100A100040029B1A9B18272BC4BF01230B70194A55
:100A2000D378DBB2180611D45A060DD5154B1B79B5
:100A30005B0609D5194B1A491B6800220A7003B1DD
:100A40001A70104B2C22DA7030BC704711790906ED
:100A5000EAD5144910480C780178C9B28C420DD0FF
:100A60004A1C272A84BF00210A460F4D054C98BF17
:100A7000D1B2AA5CD2B2E2710170D5E76C21D1701B
:100A8000D2E700BF00A00E40340CFF1F350CFF1F43
:100A9000600CFF1F300CFF1FA10CFF1FA40CFF1FD9
:100AA000A00CFF1FA80CFF1F380CFF1FF0B472B67C
:100AB0001A491B4E012311F8014B194F9A002407C4
:100AC00042F0010505D556F8324064B156F835209C
:100AD000BAB10133052BEED162B6124B00221A7067
:100AE000F0BC00F01BBD0F4C0F4D217847F8325081
:100AF00007EB431308304A1E5860227062B6F0BC00
:100B000070470849094B0A7847F8353007EBC503A9
:100B10000830013A58600A7062B6F0E7EC23000032
:100B20000000FF1F810DFF1F88004000C80040002B
:100B3000431E032B1DD81B4A400140F0100030B467
:100B4000104472B6184CE25C032A1BD8DFE802F0AE
:100B50000212151703220D88E25410F0080F14BF7B
:100B6000C823882343EA054308310360416062B625
:100B700030BC704708300222EDE70522EBE7083071
:100B80000422E8E7094A52F8230038B1084A52F82B
:100B90002300416042F8231062B6E9E742F82310CF
:100BA000034AF7E70000FF1F900DFF1F580DFF1FBE
:100BB000680DFF1F2DE9F04FDFF804A3DFF804B341
:100BC00087B044E0A94F4FEA930807EBC809013EFC
:100BD000D9F8042003F00803F6B2A2F1080003F0EC
:100BE000FF04002B40F0FE8057F838301B0C99B200
:100BF00022F8081C002B00F0EC809D4B22F8064CDC
:100C000042F8044C53F82620002A00F02B82994D1C
:100C100055F826305860984C45F8260034F81630C0
:100C2000194424F8161000F059FC002800F0138233
:100C3000924A934B19F0080F00F1080018BF1346B1
:100C4000C9F8040047F8383008238AF800309AF8C9
:100C50000040E4B260071AD58A4B1B78A3B18A49D9
:100C60000A7802F0FF0322B1013BDBB20B7003B93B
:100C700000BE86490A7802F0FF032AB1013BDBB2CD
:100C80000B70002B00F0BD8104238AF8003004F0C3
:100C9000080303F0FF02002B00F0C8809BF800302F
:100CA000DBB21E098ED19C08704F57F8342007EB39
:100CB000C401C2F38302013A49680C2A00F285801C
:100CC000DFE802F07979838383838383428383839C
:100CD000070008686E4B6F4D0193684B4A686E4E73
:100CE00047F8343081B240F28164694B6A60286011
:100CF00000220120A1421A603A61BA61307000F20C
:100D0000E380B1F5D06F80F02782B1F5817F00F0EC
:100D1000E08100F2C381802900F03682822940F010
:100D2000DE81A9885D4B01F07F01042900F2D881A2
:100D30005B4C89000B44227062701A78930740F173
:100D400022832070022023E2514B01931A683AB3A8
:100D5000544B514E5449188834780D7840288646B3
:100D600045F0020828BF4FF0400E002C84F001042B
:100D70003470CEEB00000CBF8824C82407EBC806F3
:100D800080B285F0010544EA0E447260188047F88D
:100D9000384072440D70002800F0B780019B1A6043
:100DA0003C4B1A88B2F5A06F0FD100219A78597088
:100DB0003E4B1A7009E0374A108842F221029042F5
:100DC00000F0A8802D4A47F83420394A01231370D7
:100DD0003AE72A4A2A4B19F0080F18BF134647F87A
:100DE000383031E700F09AFB324A334952F8263066
:100DF000002B00F03B8158688C5D42F8260003F11F
:100E00000802C9F80420032C05D8DFE804F02C02FE
:100E1000292602228A551A8819F0080F0CBF882348
:100E2000C82343EA024347F838300DE7E00700F1F2
:100E3000EB80210600F12881A20706D51F4A204930
:100E400013780220DBB213700870E30602D51C4B46
:100E500010221A7007B0BDE8F08F04228A55DAE735
:100E600005228A55D7E703228A55D4E70000FF1FE1
:100E7000040DFF1FB00CFF1F4410FF1FC8004000EF
:100E8000880040008C0DFF1F150DFF1F940DFF1FE4
:100E9000AC0CFF1F780DFF1F140DFF1FC020074073
:100EA000840DFF1FC00CFF1F800DFF1F98200740FF
:100EB00094200740580DFF1F900DFF1F882007400A
:100EC000802007409020074042F22104A14200F018
:100ED000948043D8B1F5086F00F0A881B1F5106F88
:100EE00040F0FD80B84AB94CA978117004F1800532
:100EF00003E00834AC4200F09E81236A1906F8D55D
:100F0000606A083800F00AFBF3E7BEF1400F18BF33
:100F1000002243E7AE4ACD1D11F8013B02F8013F24
:100F2000A942F9D1AB4A1268862A00F01181AA4978
:100F3000AA4E0A78307882F00105002842F00202B9
:100F40000D700CBF8821C82147F8321007EBC20290
:100F500080F0010000213070516033E742F221241B
:100F6000A14240F0FE81DFF8BCC29D4B9D49AC78A8
:100F7000DCF800501D6081460C7000200290804615
:100F80008446044694490D7845F0020E07EBCE03E3
:100F9000B9F1000F5C600CBF8824C82444EA080340
:100FA00085F0010447F83E3032700C70DFF81CE227
:100FB0008A4BDFF82482002840F09880BCF1400F73
:100FC0001BD144F0020407EBC403029FDFF8FCE1ED
:100FD0005F60002A40F09F80020442F088020744CC
:100FE0004EF8342086F800900D703B46402804D11E
:100FF00000207D4A019910800B607C4A0123137008
:10100000E3E600F0BFFA3FE6704B784872491A6198
:101010004FF0020E80F800E0754F0A7075491960B4
:101020009960754E754D764C9A610D213970FF218E
:101030003170DFF8F4E129702270724D724A8EF837
:1010400000109F27012406F8047C5D600470DA60BC
:1010500007B0BDE8F08F6D4A47F8380013780133C8
:101060001370F1E543F82600694DD4E58B5D032B41
:1010700067D801A252F823F0490C0000490C000087
:10108000CD100000C710000059495C4B80220D2094
:1010900008701A70A2077FF5D8AECFE640F2023290
:1010A000914240F05681A98801F07F01042916D8A9
:1010B0006A88A2B94E4C89000C448146217841F0DF
:1010C0000201217059E701238B55BDE500238B55A3
:1010D000BAE5A98801F07F01042940F24781444B19
:1010E0000F221A70414A012313706EE640287FF6E2
:1010F00068AF44F002040EEBC401029E4E60AAB138
:10110000444A83F800903346403888F80050403312
:101110004EF834206DE70204029B86F8009042F0FE
:10112000C8020D7003444EF834205FE783F8009046
:10113000029B304A88F80050403840334EF8342043
:1011400057E719F0080F0CBF022303238B557BE5EB
:10115000314A0F211170EAE6304A5468002CBED0A3
:101160006888B5F804E003E00C325468002CB6D06F
:1011700013888342F8D153887345F5D1000A0328B8
:101180000CBF2078108903E0254C02202270627089
:10119000EA88824280F00C810F490D78402A45F0A0
:1011A000020E944607EBCE0028BF4FF0400C04EB34
:1011B0000C0344600293CCEB02004FEA0C484FF062
:1011C00001090022C824E9E68C0DFF1F0000FF1F63
:1011D0004B10FF1F4C10FF1F800DFF1F140DFF1F32
:1011E0005410FF1FA00DFF1FC00CFF1F94200740CD
:1011F000C02007408800400088200740802007402A
:1012000098200740C40CFF1F180DFF1F810DFF1F02
:10121000B00CFF1FC8004000150DFF1FF023000099
:10122000840DFF1F2C0CFF1F8C200740684A694C5F
:1012300012782270ACE76849684B694A02916949A3
:10124000694C6A4D039405964FF0000988461C4688
:1012500016460495206828B1456800F05FF92846D5
:10126000002DF9D100232360049B30681A46002327
:1012700042F8293028B1456800F050F92846002D81
:10128000F9D100223260029A98F80030114600220B
:1012900041F8042B039A0291023B4FF0000122F81F
:1012A0001910032B07D8DFE803F0340234024FF0A3
:1012B000010388F8003009F10109B9F1040F04F1C4
:1012C000040406F1040608F10108C3D1484B059E49
:1012D000DFF83091DFF8308100211970012518F80E
:1012E000013B09F8043B1A0718D4AC0044F0020291
:1012F00044F00304002347F8323047F834303D4BC4
:10130000994505F10105EAD196F8009089F00102AE
:1013100033E64FF0000388F80030CCE700F0DEF849
:10132000AC0007EB451300F10802002837D05A60E3
:10133000314B47F8343000F0D1F844F0010307EBAB
:10134000C30200F1080100B351602C4A47F8332072
:10135000CCE7B1F5A06F7FF4C2AE00224FF00109D7
:101360000BE642F221329142F7D0B8E66A88002AB1
:101370007FF4B5AE224C89000C448146217821F0DF
:1013800002012170F9E5022002E7194B44F0010245
:101390001B7847F83200164A01331370A6E7144B46
:1013A000134A1B78AC00013347F834001370C2E7CE
:1013B0004028844628BF4FF0400C04EB0C03CCEBD4
:1013C00000004FEA0C48029300224FF00109D9E5D2
:1013D0008C0DFF1F840DFF1F680DFF1F040DFF1FE5
:1013E000580DFF1F900DFF1F4410FF1FB00CFF1F73
:1013F000810DFF1FD420074088004000C800400036
:10140000C0200740C4200740EC2300002DE9F04134
:10141000274C00F0DDFC002204F1880023461A600E
:101420005A60083383424FF00001F8D12148224A24
:101430000368DFF89CE0214E214D224FDFF894C075
:10144000DFF8948043F480230360136843F0407313
:10145000136003238EF80030A023337002F5C922F5
:10146000C4F3072300F528302B708030C4F3074302
:1014700010323B70240EFF230470134D8CF80030A3
:10148000124888F800301370012306F8AC3C4FF482
:1014900000140EF8441C7026102107F82C3C2E7006
:1014A000046082F8F810AEF1440EBDE8F08100BF90
:1014B0000000FF1F3480044000D800404021074056
:1014C0009C200740B020074035E400E004E100E044
:1014D00044210740802007408820074072B60D480D
:1014E0000268B2FA82F30B2B10DC4FF00041D940B6
:1014F00022EA0102026062B6074803EBC303DB0085
:10150000C2180021C15010465160704762B60020D9
:10151000704700BF3C07FF1FD003FF1F0D4B0E4A53
:10152000C31AA2FB03231B090B2B0CD80B4A1278FE
:1015300052B972B60A484FF00041026821FA03F32B
:101540001A43026062B67047064A1278002AF0D049
:10155000FFF7ACBAD003FF1F398EE338810DFF1FB0
:101560003C07FF1F8C0DFF1F044B054A1B6890882A
:101570001BB11A885B88D31A184470479C0DFF1F53
:101580004410FF1F38B50E4B1B7873B90D4C216802
:1015900061B103F0FF054B880B800420FFF7C8FA08
:1015A000256038BD084B01221A7038BDFFF796FF41
:1015B0000028F7D00146BDE838400420FFF7B8BA4C
:1015C000950DFF1F980DFF1F940DFF1F08B5FEF727
:1015D0004DFFFEF76FFF00F001F8FAE738B52C4C2D
:1015E000237803B138BD01232370FFF7BDFF002826
:1015F00042D100F047F900283BD100F0D9F900288A
:1016000034D100F06BFA70BB00F0E4FA40BBFFF796
:10161000D1F910BB00F05AFBE0B900232370EFF3BF
:101620000583002BDED1EFF3108172B6194B1868D9
:1016300028B3194C227812BB45691D600123237021
:101640000DB3AA6101B962B6002545778368984752
:101650002570C7E700F002FDDFE700F0FDFCD9E7E9
:1016600000F0F8FCD3E700F0F3FCCDE700F0EEFC6F
:10167000C7E700F0E9FCC0E700F0F2FCB9E7002999
:10168000B0D162B638BD054B1D600029DCD1DAE768
:10169000A10DFF1F3810FF1F3C10FF1F3410FF1F4C
:1016A00030B42948294A2A4B2A4D6024E12104708C
:1016B00011701B78284C082B30D00A2B274828495A
:1016C00037D00C2B0CBF35225D2212232A602360F9
:1016D00002600B60234B24491B78244ABBB10123D1
:1016E0000B601360224B23491B78234A012B26D918
:1016F000042B0FD9082B1ED9102B94BF86238723C8
:101700000B6013601D4B01221A7030BC70470B60D8
:101710001360E7E784230B601360F3E700F58E2086
:101720000F490830212213232A60236002600B60D6
:10173000D0E73922F7E785230B601360E2E78023C7
:101740000B601360DEE700BF004007400140074028
:101750004007FF1F08B003400CB0034008B00B4027
:101760000CB00B40A30DFF1F20B0034020B00B4076
:101770004107FF1F24B0034024B00B40A20DFF1F00
:1017800008B5104C08E0236859050DD423681A05E4
:101790000FD42368DB0411D423685803F3D5FFF773
:1017A00009FA23685905F1D500F07CF823681A0579
:1017B000EFD500F00DF92368DB04EDD500F09EF9BC
:1017C000EAE700BF3480044008B5FFF7D9FF00BF47
:1017D000014B10221A80704700200540704700BF5F
:1017E000EFF3138070B9EFF310836BB9EFF3058259
:1017F0005AB94FF48070EFF311832BB1984228BF90
:10180000184670474FF0FF3070470F2A01D818462E
:10181000F1E7014BD05CEEE7F0E300E0084A137813
:10182000802B01D0002070470649074B074808600D
:10183000002119701378802BFCD00120704700BF65
:1018400003E007404480044001E0074000002822F4
:10185000094A1378012B01D00020704703F180431F
:1018600003F5FC23602119701378802BFCD1034B06
:10187000034A1A600120704703E007404480044097
:1018800000000602054A064B10781B78C0B2DBB296
:10189000984238BF4030C01A704700BFA80DFF1FE4
:1018A000A90DFF1FF0B4384B1A7912F0300F2CD06D
:1018B00072B6997D01F0FF0200293DD062B6334F28
:1018C000334938780D78334E1C46C0B2EDB2431C14
:1018D000402BE17928BF0023AB4202F1FF32C9B2AD
:1018E0001CBFF154184612F0FF02F0D12A4B1B68BE
:1018F000C2B23A704BB1A84236BFC5F14005401B99
:1019000040192728C4BF01221A701F49CA78D2B2D1
:10191000150616D452060DD51B4B1B795B0609D54F
:101920001E4B1F491B6800220A7003B11A70164B28
:101930003C22DA70F0BC70474022D9795A7462B602
:10194000E3E70B791C06E5D5164B174E1C78337868
:10195000E4B2DBB29C420ED0144D01E0A3420AD0A7
:101960000133402B28BF00230879E85CC0B2C8715E
:10197000087D0728F2D9DBB2034933700B791806CA
:1019800044BF7C23CB70C5E700A00640A80DFF1F15
:10199000A90DFF1FEC0DFF1FA40DFF1F300EFF1F31
:1019A0002C0EFF1F340EFF1F2D0EFF1FAC0DFF1F4F
:1019B000054A064B10781B78C0B2DBB2984238BF9C
:1019C0004030C01A704700BFA80EFF1F3D0EFF1F1A
:1019D000F0B4384B1A7912F0300F2CD072B6997DD2
:1019E00001F0FF0200293DD062B6334F3349387809
:1019F0000D78334E1C46C0B2EDB2431C402BE1794A
:101A000028BF0023AB4202F1FF32C9B21CBFF15420
:101A1000184612F0FF02F0D12A4B1B68C2B23A708E
:101A20004BB1A84236BFC5F14005401B40192728DD
:101A3000C4BF01221A701F49CA78D2B2150616D443
:101A400052060DD51B4B1B795B0609D51E4B1F4952
:101A50001B6800220A7003B11A70164B3C22DA7020
:101A6000F0BC70474022D9795A7462B6E3E70B792B
:101A70001C06E5D5164B174E1C783378E4B2DBB262
:101A80009C420ED0144D01E0A3420AD00133282B12
:101A900028BF00230879E85CC0B2C871087D072818
:101AA000F2D9DBB2034933700B79180644BF7C23AB
:101AB000CB70C5E700B00640A80EFF1F3D0EFF1F0C
:101AC000680EFF1F380EFF1FAC0EFF1F3C0EFF1FDE
:101AD000B00EFF1FA90EFF1F400EFF1F054A064B49
:101AE00010781B78C0B2DBB2984238BF4030C01AC1
:101AF000704700BFB80EFF1FB90EFF1F30B42B4B4D
:101B00001A7994061FD52A48DA79037829490133CE
:101B10003F2B0978C8BF00238B42D2B203D0264C9A
:101B2000D9B2E2540170254A116861B1244A127891
:101B3000D2B2934236BFC2F140029B1A9B18272BA8
:101B4000C4BF01230B70194AD378DBB2180611D435
:101B50005A060DD5154B1B795B0609D5194B1A4949
:101B60001B6800220A7003B11A70104B2C22DA7025
:101B700030BC704711790906EAD5144910480C7831
:101B80000178C9B28C420DD04A1C272A84BF00219B
:101B90000A460F4D054C98BFD1B2AA5CD2B2E27191
:101BA0000170D5E76C21D170D2E700BF00C00640BC
:101BB000B80EFF1FB90EFF1FE40EFF1FB40EFF1F6C
:101BC000250FFF1F280FFF1F240FFF1F2C0FFF1FC4
:101BD000BC0EFF1F054A064B10781B78C0B2DBB263
:101BE000984238BF4030C01A704700BF340FFF1F03
:101BF000350FFF1F30B42B4B1A7994061FD52A4896
:101C0000DA790378294901333F2B0978C8BF0023CB
:101C10008B42D2B203D0264CD9B2E2540170254A8D
:101C2000116861B1244A1278D2B2934236BFC2F130
:101C300040029B1A9B18272BC4BF01230B70194A23
:101C4000D378DBB2180611D45A060DD5154B1B7983
:101C50005B0609D5194B1A491B6800220A7003B1AB
:101C60001A70104B2C22DA7030BC704711790906BB
:101C7000EAD5144910480C780178C9B28C420DD0CD
:101C80004A1C272A84BF00210A460F4D054C98BFE5
:101C9000D1B2AA5CD2B2E2710170D5E76C21D170E9
:101CA000D2E700BF00D00640340FFF1F350FFF1FE3
:101CB000600FFF1F300FFF1FA10FFF1FA40FFF1F9B
:101CC000A00FFF1FA80FFF1F380FFF1F054A064B6D
:101CD00010781B78C0B2DBB2984238BF4030C01ACF
:101CE000704700BFB00FFF1FB10FFF1F30B42C4B68
:101CF0005A6894021FD52B48DA6803782A490133C1
:101D00003F2B0978C8BF00238B4204D0274CD2B2A6
:101D1000D9B2E2540170264A116861B1254A12789D
:101D2000D2B2934236BFC2F140029B1A9B18272BB6
:101D3000C4BF01230B701A4A9368180202D5526877
:101D4000110211D45A020DD5154B5B685B0209D5FF
:101D5000194B1A491B6800220A7003B11A70184BFC
:101D600000221A6030BC7047164A124910780A786F
:101D7000D2B290420DD00132272A84BF0020024601
:101D8000114D074C98BFD0B2AA5CD2B2E260087085
:101D9000D8E70E480A4A0024012104601160D1E707
:101DA00000400C40B00FFF1FB10FFF1FDC0FFF1FE3
:101DB000AC0FFF1F1D10FF1F2010FF1F1C10FF1F67
:101DC000580188432410FF1FB40FFF1F5C01884394
:101DD00010B584B072B6FFF721FD184A184B1949A7
:101DE0001160702280211A701A46197013781B0630
:101DF000FCD5154B1C68FFF72BFD62B6134B9C42BC
:101E00009CBF04EB840464002046114C01A90A2203
:101E100000F028F901A92046002311F8012B013315
:101E20003AB10A2B20F8022FF7D11623237004B001
:101E300010BD5B00DBB2237004B010BD0400024093
:101E400000000240000007410C0002407F9698000D
:101E5000D007FF1F10B4EFF3108272B6437F33B97F
:101E6000017F012908D0032910D00123437702B94B
:101E700062B65DF8044B7047114C2168A1B111495D
:101E800043610B68836108605861EEE70E4C21687E
:101E900081B10E4943610B688361086058610C4B46
:101EA0004FF080511960E0E7064B4161816120608D
:101EB0001860DAE7054B4161816120601860EEE748
:101EC0003810FF1F3410FF1F2810FF1F2C10FF1F9A
:101ED00004ED00E010B4047F4160022CC26003D026
:101EE0005DF8044BFFF7B6BF83685DF8044B1847F5
:101EF00070B5EFF3108272B60C4C206880B10C4EB6
:101F000000254369236073B19D6102B962B64577CC
:101F100083689847EFF3108272B620680028F0D1EA
:101F200002B962B670BD3360EFE700BF2810FF1F33
:101F30002C10FF1FFFF7DCBF184A30B41468002CC8
:101F400027D0036821688B420ED2CB1A002184600F
:101F5000C1602360E06010600223037530BC7047ED
:101F600011688B42144608D3A2685B1A0360002AEA
:101F7000F6D18260C460A060EEE7D268C26084607F
:101F8000E060C568CB1A0222A8602360027530BCED
:101F900070478460C4601060DEE700BF3010FF1F30
:101FA000F8B5224E34682CB32368002B3AD1204F69
:101FB0001D4604E03468ECB12368002B32D1A368DD
:101FC00003B1DD6020693360036825751B68BB427F
:101FD00021D1037F4560022BC46020D0FFF73AFF78
:101FE0006368002BE6D023602046FFF7A5FF346826
:101FF000002CE1D1EFF3108372B60E4A0021106875
:10200000116003B962B628B18468FFF795FF2046D6
:102010000028F9D1F8BD224600219847E0E78368FF
:102020009847DDE7013B2360E4E700BF3010FF1F66
:10203000D51E00004010FF1F024A136801331360D1
:10204000FFF7AEBF2C0CFF1F704700BF704700BFEB
:10205000704700BF704700BF704700BF704700BFA8
:10206000704700BFF0B44D1E2E46002400E001343E
:10207000B0FBF2F302FB1300092800F130078ABF1E
:102080003730F8B2C0B206F8010F1846002BEED177
:102090000A1953704CB1107815F8016F287001338C
:1020A000E01A834202F80169F5DB0846F0BC70478C
:1020B00070B50F4E0F4D761BB61018BF002405D01B
:1020C000013455F8043B9847A642F9D10A4E0B4D0E
:1020D000761B00F0B9F9B61018BF002406D0013401
:1020E00055F8043B9847A642F9D170BD70BD00BFBA
:1020F00054240000542400005C24000054240000F8
:10210000024B13B1024800F005B870470000000010
:1021100021210000002301461A46184600F014B899
:1021200038B5074D074C2C1BA41005D0013C55F8C1
:10213000043D9847002CF9D1BDE8384000F08EB935
:1021400000000000000000002DE9F047254C256844
:10215000D5F848410646884692469946C4B3606819
:102160001F2817DC431C76B104EB80050122C5F85B
:1021700088A0D4F8881182401143022EC4F8881137
:10218000C5F808911ED00230636044F8208000201A
:10219000BDE8F087144B03B34FF4C870AFF3008071
:1021A0000446D0B1D5F84831002780E88800C5F84A
:1021B000484138460123C4F88871C4F88C71002E58
:1021C000E1D0D1E7D4F88C110A43C4F88C21DAE7C6
:1021D00005F5A674C5F84841C1E74FF0FF30BDE8EA
:1021E000F08700BF44240000000000004008FE43C8
:1021F00040A004404408FE4344A004400018FE43AD
:1022000000C004403000FE43309004403400FE43E0
:10221000349004401C18FE431CC004401018FE43B8
:1022200010C004400818FE4308C004400C18FE43C8
:102230000CC004400C10FE430CB004401010FE43D0
:1022400010B004401810FE4318B004401C10FE43A8
:102250001CB004401410FE4314B004400418FE43A4
:1022600004C004400010FE4300B004400008FE43D8
:1022700000A004400408FE4304A004400C08FE43F0
:102280000CA004400808FE4308A004401418FE43B4
:1022900014C004401818FE4318C004400410FE4344
:1022A00004B004400810FE4308B004406820FE4318
:1022B00068D004401400FE43149004403800FE43EC
:1022C000389004403C00FE433C9004404000FE43F4
:1022D000409004404808FE4348A004404C08FE4398
:1022E0004CA004402808FE4328A004402C08FE43CC
:1022F0002CA004406020FE4360D004406420FE43D4
:1023000064D004402010FE4320B004402410FE435B
:1023100024B004402810FE4328B004402C10FE4393
:102320002CB004404400FE43449004407000FE433F
:10233000709004407400FE43749004406800FE43B3
:10234000689004405008FE4350A004405808FE43E3
:1023500058A004405C08FE435CA004405408FE43BF
:1023600054A004402018FE4320C004402418FE431B
:1023700024C004401008FE4310A004401408FE438B
:1023800014A004403818FE4338C004403418FE43FB
:1023900034C004403018FE4330C004403C18FE43B3
:1023A0003CC004402C18FE432CC004402820FE43AF
:1023B00028D004402C20FE432CD004400020FE43B3
:1023C00000D004400420FE4304D004400820FE4313
:1023D00008D004400C20FE430CD004401020FE43E3
:1023E00010D004401420FE4314D0044000151915E9
:1023F000000100004407FF1F12000000000200005F
:102400007007FF1F4300000000030000CC07FF1F00
:1024100000000000010309045807FF1F000000002E
:1024200002030904B407FF1F0000000003030904AE
:10243000D007FF1F000000000000000000000000A7
:1024400000000000E807FF1FF8B500BFF8BC08BC9B
:0C2450009E46704701210000350400008A
:04245C00F8B500BF10
:102460001D0000000D0000001C000000FFFFFFFF2A
:102470000A0400001201100102000040C01683048B
:102480007702010203010000180354006500650093
:102490006E00730079006400750069006E006F00C3
:1024A00009024300020100C03209040000010202D7
:1024B0000100052400100105240101010424020685
:1024C00005240600010705820310004009040100ED
:1024D000020A00000007050302400000070584020D
:1024E0004000000016035500530042002000530036
:1024F00065007200690061006C00000004030904BB
:102500000C030000000000000000000000000000BC
:10251000000000000000000000000000D40AFF1FBF
:102520003C0BFF1FA40BFF1F000000000000000079
:10253000000000000000000000000000000000009B
:10254000000000000000000000000000000000008B
:10255000000000000000000000000000000000007B
:10256000000000000000000000000000000000006B
:10257000000000000000000000000000000000005B
:10258000000000000000000000000000000000004B
:10259000000000000000000000000000000000003B
:1025A000000000000000000000000000000000002B
:1025B000000000000000000000000000000000001B
:1025C00001000000000000000E33CDAB34126DE6B8
:1025D000ECDE05000B000000000000000000000021
:1025E00000000000000000000000000000000000EB
:1025F00000000000000000000000000000000000DB
:1026000000000000000000000000000000000000CA
:1026100000000000000000000000000000000000BA
:00000001FF
