:1000000000000320D1010000D155000089550000F7
:100010008955000089550000895500008955000068
:10002000895500008955000089550000D155000010
:10003000D155000089550000B17E0000B57F000059
:10004000D1550000D1550000D1550000D155000018
:10005000D1550000D1550000D1550000D155000008
:10006000D1550000D1550000D1550000D1550000F8
:10007000D1550000D1550000D1550000D1550000E8
:10008000D1550000D1550000D1550000D1550000D8
:10009000D1550000D1550000D1550000D1550000C8
:1000A0004526000051260000D1550000D155000022
:1000B000D1550000D1550000D1550000A95D0000C8
:1000C000D155000015650000D1550000A56A00005B
:1000D000D1550000CD700000D1550000D155000071
:1000E000D1550000D1550000D1550000D155000078
:1000F000D1550000D1550000D1550000D155000068
:10010000D1550000D1550000D1550000D155000057
:10011000BD1E0000B1400000D1550000D1550000C7
:10012000D1550000D1550000D1550000D155000037
:10013000D1550000D1550000D1550000D155000027
:10014000D1550000D155000029760000D15500009E
:10015000D1550000D1550000D1550000D155000007
:10016000D1550000D15500005D260000D15500009A
:10017000D1550000D1550000D1550000D1550000E7
:10018000D1550000D1550000D1550000D1550000D7
:10019000D1550000D1550000697C0000D155000008
:1001A000D1550000D1550000D1550000D1550000B7
:1001B000D1550000D1550000D1550000D1550000A7
:1001C000D1550000D1550000D1550000D155000097
:1001D0005C4B4CF2205210B51A804DF628121A8052
:1001E00000BF00BF05F0F8F9574B4FF030621A60BE
:1001F000564A9A60564ADA60564B4FF470021A60BB
:10020000554B564A1A60564A136813F4807304D14A
:1002100054490B604FF4A8531360534B1A781107DD
:1002200003D51A7842F008021A70504B5049AA229E
:100230001A70504A504B8B4204D252F8040F43F8C4
:10024000040BF8E74D4B4E4900228B4202D243F893
:10025000042BFAE74B494C4A002352F8230041F89B
:1002600023000133742BF8D1484B494A802103F80D
:10027000011B9342FBD1474B424A1A60464B8A22EC
:100280001A70A3F5805324225A70A0221A709A790A
:100290009207FCD59A79D406FCD4404A937903F0AE
:1002A0000C03082BFAD13E4B60221A7002331A78E5
:1002B000802AFCD1394B01221A715D225A719A7938
:1002C0009006FCD59979354A4906FBD5354B364918
:1002D00019600021596020231370937903F00C03F7
:1002E0000C2BFAD1314B324A1A60324B324A1A6027
:1002F00000225A60072243F8042C304AC3F80C2D20
:1003000062B603F067FD174B1B68DA0705D52C486A
:1003100003F042FB2B4B2C4A1A602C4B1B785B06DC
:1003200009D5284C284B22689A4204D1244803F06E
:1003300033FB0023236007F071FE05F053F905F04D
:10034000A3F8FEE70E20054030800440823F040001
:100350000100002B88ED00E0002008E0030000858C
:1003600010D0034014D0034002D0074000E0074003
:10037000E411FF1F889800003007FF1FE411FF1FE2
:10038000BC1AFF1F0002FF1F0000000000E400E095
:1003900064E400E008ED00E0005006400040064044
:1003A00001E007404480044000000602048004404D
:1003B000C010070014E000E01FBF02000000202072
:1003C00022C6775C1CE00340A5C3945A00F00740A6
:1003D000FFFFFFFFFFFFFFFFFFFFFFFFFFFFFFFF2D
:1003E000FFFFFFFFFFFFFFFFFFFFFFFFFFFFFFFF1D
:1003F000FFFFFFFFFFFFFFFFFFFFFFFFFFFFFFFF0D
:10040000FFFFFFFFFFFFFFFFFFFFFFFFDEF9FFFF23
:1004100010B5054C237833B9044B13B10448AFF33E
:1004200000800123237010BDE411FF1F00000000B5
:100430008C980000084B10B51BB108490848AFF371
:1004400000800848036803B910BD074B002BFBD0A0
:10045000BDE81040184700BF00000000E811FF1F72
:100460008C980000E411FF1F000000003F2800D915
:10047000704738B50D4604460146084802F0A2FA16
:10048000012800D038BD21462A46044802F0ACFAC3
:10049000E9B22046BDE8384003F030BC0014FF1F2D
:1004A000452800D9704738B50D46044601461A481C
:1004B00002F088FA032815D0042812D13F2C09D85D
:1004C000164B17481B5D03EB430300EB4300294623
:1004D00001F0A2FC2A4621460F48BDE8384002F050
:1004E00083BA38BDA31EDBB21C2B0ED9A4F12303A3
:1004F000032BEFD82946204603F060FA2A4621460E
:100500000548BDE8384002F06FBA064A22FA03F304
:10051000DB07EFD4EAE700BF0014FF1FBC12FF1F88
:100520002013FF1FFF113C18082800F282802DE9DC
:10053000F84F461CF600F6B2462E4FEAC00028BF20
:100540004626C7B2B74280F0BB805FFA81F83C46CE
:100550004FF00009012505E00134E4B26D00B4421A
:10056000EDB222D03F2CF7D82146594802F02AFAA2
:10057000012805D02146564802F024FA0028EBD184
:1005800015EA080B2146524814BF4FF0010A4FF0FC
:10059000000A02F017FA012832D149EA0509524649
:1005A00021464B4802F020FAD6E719F0010F4CD152
:1005B00009F0020309F0040B09F0080A09F010061B
:1005C00009F0200509F04004DBB25FFA8BFB5FFA0B
:1005D0008AFAF6B2EDB2E4B24FFA89F9002B3AD1B9
:1005E000BBF1000F40D1BAF1000F47D1002E4DD121
:1005F000002D54D1F4B9B9F1000F59DBBDE8F88FE3
:100600002146334802F0DEF90028C8D1BBF1000FC3
:10061000C5D021462E4802F0E1F90128BFD020467E
:10062000022103F07FFB52462146294802F0DCF903
:1006300092E77047B81D00F0FE0008F0400103F09B
:100640005DFBB9F1000FD9DA32E008F0010138465C
:1006500003F054FBACE7781CC0B208F0020103F0D1
:100660004DFBBBF1000FBED0B81C00F0FE0008F03F
:10067000040103F043FBBAF1000FB7D0F81CC0B27D
:1006800008F0080103F03AFB002EB1D0381D00F04D
:10069000FC0008F0100103F031FB002DAAD0781DFA
:1006A000C0B208F0200103F029FB002CA3D0C1E761
:1006B000F81D08F08001C0B2BDE8F84F03F01EBB82
:1006C00000245FFA81F8A146002C94D0B2E700BF65
:1006D0000014FF1F1A2815D838B5034649B10F4C2E
:1006E0000F4922680D78012181400A43226055B1EB
:1006F00038BD0A480121026801FA03F322EA030225
:10070000026038BD7047044603F02AF821460246CD
:10071000BDE83840034802F003B900BF1C13FF1FB7
:100720007013FF1F0014FF1F082834D8414B1954C1
:1007300089B32DE9F041C400DFF80481E4B2402C14
:10074000064618F8007027D0F8074FD400253F2C34
:1007500023D0B9075BD43D2C01D87A074DD43C2C6B
:1007600001D83B075CD43B2C01D8F8062BD43A2C9B
:1007700001D8B90631D4392C01D87A0619D4382CCD
:100780000BD83B0609D5E01DC0B203F0BDFA20B17D
:1007900045F0800501E07047002518F8063026482E
:1007A0001D402A46314602F0BFF8244B9D55BDE856
:1007B000F081A01D00F0FE0003F0A6FA0028DED0B4
:1007C00045F04005DBE7201D00F0FC0003F09CFA3B
:1007D0000028CCD045F01005C9E7601DC0B203F079
:1007E00093FA0028C7D045F02005C4E7204603F05F
:1007F0008BFA0028AAD00125A9E7A01C00F0FE0072
:1008000003F082FA0028AAD045F00405A7E7601C8F
:10081000C0B203F079FA00289DD045F002059AE7AE
:10082000E01CC0B203F070FA00289CD045F0080527
:1008300099E700BF0413FF1F0014FF1F0012FF1FE2
:100840001013FF1F70B4184E34780B2C27D8174B99
:100850001D7895B9164D631C2C543370002915DD95
:10086000002A13DD134D04EB440413460A460146E7
:1008700005EB440070BC01F04DBA0F4C0C4E2C44FB
:10088000013D14F8014C1D703454E7E7094B04EBAB
:100890004404014603EB440070BC01F097BA0749D9
:1008A000074870BC02F048B86813FF1F1012FF1F02
:1008B000BC12FF1F2013FF1F7413FF1FB89100000D
:1008C0000014FF1F38B50446104D11482B5D03EB93
:1008D000430300EB430001F07FFA0E492A5D0B78D9
:1008E0009A420CD043B10C480C4903780133DBB277
:1008F0001944037001F8012CFF232B5538BD002A41
:10090000FAD0FF23013A2B550A7038BDBC12FF1FE5
:100910002013FF1F6813FF1F1012FF1F7413FF1F08
:10092000F8B5AA4D2B7833B3A94C2678F10700F11E
:100930008B810027B20700F17482730700F168828F
:10094000300700F15C82F10600F13A82B20600F154
:100950004282730600F14A82300600F179839D4E8F
:10096000237832781F40BA4205D03A4600219A488F
:1009700001F0DAFF37706B7833B3954C6678F10786
:1009800000F12C810027B20700F19381730700F179
:100990008781300700F17B81F10600F16F81B2069B
:1009A00000F16381730600F15781300600F11A836C
:1009B000884E637872781F40BA4205D03A460121CA
:1009C000854801F0B1FF7770AB7833B3804CA678DF
:1009D000F10700F129810027B20700F1A081730718
:1009E00000F19481300700F18881F10600F17C81EB
:1009F000B20600F17081730600F16481300600F1E7
:100A0000FA82744EA378B2781F40BA4205D03A46B3
:100A10000221714801F088FFB770EB7833B36C4C5A
:100A2000E678F10700F108810027B20700F1AD81F7
:100A3000730700F1A181300700F19581F10600F103
:100A40008981B20600F17D81730600F17181300663
:100A500000F1DA825F4EE378F2781F40BA4205D0A7
:100A60003A4603215C4801F05FFFF7702B7933B3FE
:100A7000574C2679F10700F1C7800027B20700F133
:100A80007282730700F16682300700F15A82F10624
:100A900000F14E82B20600F18A81730600F17E8178
:100AA000300600F1BA824B4E237932791F40BA42A8
:100AB00005D03A460421484801F036FF37716B797A
:100AC00033B3434C6679F10700F1A6800027B207E3
:100AD00000F17F82730700F17382300700F16782B3
:100AE000F10600F15B82B20600F14F82730600F15D
:100AF0004382300600F19A82364E637972791F4044
:100B0000BA4205D03A460521334801F00DFF77710E
:100B1000AB792BB32E4CA679F10767D40027B20727
:100B200000F1FD81730700F1C581300700F1CD812F
:100B3000F10600F1D581B20600F1DD81730600F106
:100B4000E581360600F17B82224EA379B2791F40FF
:100B5000BA4205D03A4606211F4801F0E5FEB771BA
:100B6000EB792BB31A4CE679F00746D40027B1078E
:100B700000F16081720700F16881330700F1708134
:100B8000F00600F17881B10600F18081720600F173
:100B90008881330600F165820E4EE379F2791F40B9
:100BA000BA4205D03A4607210B4801F0BDFEF77165
:100BB0002B7A13B1074C237A03B9F8BD0022082120
:100BC000054801F0B1FE00232372F8BD0413FF1F96
:100BD0001013FF1F0012FF1F0014FF1F082003F057
:100BE00093F800283FF4CEAE0127CCE6302003F086
:100BF0008BF8002892D0012791E7382003F084F881
:100C00000028B3D00127B2E7202003F07DF80028A8
:100C10003FF433AF012731E7282003F075F80028AF
:100C20003FF454AF012752E7102003F06DF800287D
:100C30003FF4D1AE0127CFE6182003F065F8002875
:100C40003FF4F2AE0127F0E6002003F05DF8002843
:100C50003FF46FAE01276DE60E2003F055F8002833
:100C60003FF4A3AE47F040079FE60D2003F04CF899
:100C700000283FF497AE47F0200793E60C2003F0DE
:100C800043F800283FF48BAE47F0100787E60B20AF
:100C900003F03AF800283FF47FAE47F008077BE600
:100CA0000A2003F031F800283FF473AE47F0040740
:100CB0006FE6092003F028F800283FF467AE47F0FC
:100CC000020763E6162003F01FF800283FF496AEF3
:100CD00047F0400792E6152003F016F800283FF48D
:100CE0008AAE47F0200786E6142003F00DF80028AE
:100CF0003FF47EAE47F010077AE6132003F004F8C5
:100D000000283FF472AE47F008076EE6122002F0AA
:100D1000FBFF00283FF466AE47F0040762E61120AF
:100D200002F0F2FF00283FF45AAE47F0020756E601
:100D30001E2002F0E9FF00283FF489AE47F040078B
:100D400085E61D2002F0E0FF00283FF47DAE47F06D
:100D5000200779E61C2002F0D7FF00283FF471AE8F
:100D600047F010076DE61B2002F0CEFF00283FF48D
:100D700065AE47F0080761E61A2002F0C5FF0028BB
:100D80003FF459AE47F0040755E6192002F0BCFFC6
:100D900000283FF44DAE47F0020749E6262002F056
:100DA000B3FF00283FF47CAE47F0400778E62520EB
:100DB00002F0AAFF00283FF470AE47F020076CE66F
:100DC000042002F0A1FF00283FF4C0ADB20647F0B6
:100DD00010077FF5BEAD052002F096FF00283FF416
:100DE000B8AD730647F020077FF5B6AD062002F0D8
:100DF0008BFF00283FF4B0AD47F04007ACE503207F
:100E000002F082FF00283FF49EAD47F008079AE504
:100E1000022002F079FF00283FF492AD47F004076A
:100E20008EE5012002F070FF00283FF486AD47F008
:100E3000020782E5392002F067FF00283FF49AAEEE
:100E4000720747F002077FF598AE3A2002F05CFF88
:100E500000283FF492AE330747F004077FF590AEC9
:100E60003B2002F051FF00283FF48AAEF00647F025
:100E700008077FF588AE3C2002F046FF00283FF4CB
:100E800082AEB10647F010077FF580AE3D2002F03C
:100E90003BFF00283FF47AAE720647F020077FF54B
:100EA00078AE3E2002F030FF00283FF472AE47F0EB
:100EB00040076EE6322002F027FF00283FF435AEEF
:100EC000300747F004077FF533AE332002F01CFFF4
:100ED00000283FF42DAEF10647F008077FF52BAE52
:100EE000342002F011FF00283FF425AEB20647F08F
:100EF00010077FF523AE352002F006FF00283FF4EF
:100F00001DAE730647F020077FF51BAE362002F0BA
:100F1000FBFE00283FF415AE47F0400711E63120F4
:100F200002F0F2FE00283FF4FDAD47F00207F9E5BC
:100F3000242002F0E9FE00283FF4ACAD47F0100792
:100F4000A8E5232002F0E0FE00283FF4A0AD47F022
:100F500008079CE5222002F0D7FE00283FF494AD5C
:100F600047F0040790E5212002F0CEFE00283FF470
:100F700088AD47F0020784E52E2002F0C5FE002868
:100F80003FF4B7AD47F04007B3E52D2002F0BCFEBB
:100F900000283FF4ABAD47F02007A7E52C2002F076
:100FA000B3FE00283FF49FAD47F010079BE52B20D0
:100FB00002F0AAFE00283FF493AD47F008078FE542
:100FC0002A2002F0A1FE00283FF487AD47F0040775
:100FD00083E5292002F098FE00283FF47BAD47F01E
:100FE000020777E50F2002F08FFE00283FF4E0AC07
:100FF00047F08007DCE4172002F086FE00283FF46B
:1010000000AD47F08007FCE41F2002F07DFE0028C1
:101010003FF420AD47F080071CE5272002F074FE66
:1010200000283FF440AD47F080073CE52F2002F058
:101030006BFE00283FF460AD47F080075CE5372089
:1010400002F062FE00283FF47FAD47F080077BE5A9
:10105000072002F059FE00283FF481AC47F08007DA
:101060007DE43F2002F050FE00283FF495AD47F0AC
:10107000800791E538B50648064C02F05FF904F1A7
:1010800048052046063400F021FEAC42F9D138BDB7
:101090008013FF1F2013FF1F2DE9F04114464A1C47
:1010A00007465AD0354DCEB2984642004FF0010E59
:1010B0003146284685F83B2085F85EE085F85DE0FE
:1010C00000F0B8FF4146284601F020F92C4B1B6880
:1010D00063BB012322463946284801F0A1F995F85F
:1010E000393095F838209B1A9C4239DB3DDC254984
:1010F0000F704E708CB195F8390095F838309842E1
:101100000BD0671C0F4400260131984215D8FF22EE
:1011100001F8012FB94219D166BBA21CD2B2194BFA
:1011200019487721BDE8F04101F002BCC3EB03137D
:101130009B00CED0013BFDD1CBE7EA180126127E01
:1011400001F8012F3344B942DBB2E5D09842DCD13B
:10115000002EE2D085F83800DFE7084D0026B8E71A
:101160000A49094801F0E8FBC1E70949064801F0CE
:10117000E3FBBCE785F83830CFE700BFA807FF1FC7
:101180001412FF1F7C12FF1F0014FF1FCC910000E0
:10119000EC9100002DE9F04182B0FFF7C1FB02E0C5
:1011A0003D4801F0ABFB3C4801F0A2FB074600289C
:1011B000F6D13A4B3A491B6801933A4A019B0868B9
:1011C000394C126823601B1A934232D90244DFF86B
:1011D000E8800A60F2253E46092DF4B22FD9A4F129
:1011E0001F03082B2BD9A4F13103012B27D9A4F11C
:1011F0004003052B23D901360135462EEDB2EBD144
:101200002A4E96F90030002B13DB294D002407EB02
:10121000470705EB870115F827004B7A0A7A4968DA
:10122000FFF73AFF013496F90030E4B2A3422746B3
:10123000EDDA204802F0E6F802B0BDE8F081214680
:10124000154801F0BFFB0228D5D1172E11D9272C44
:1012500011D8133CE4B2D8F800302341DB07CAD5DB
:10126000204602F07DFA214602460B4801F058FB69
:10127000C1E72C46EFE7322C02D81A3CE4B2EAE789
:10128000412C02D8373CE4B2E5E7432C94BF2D3C17
:101290002B3CE4B2DFE700BF0014FF1F5016FF1F16
:1012A0000C12FF1F3407FF1F6C13FF1F3007FF1FB7
:1012B0001812FF1F8013FF1F1C13FF1FF8B50446F1
:1012C0000D46AB48214601F07DFB7F2843D02146E7
:1012D000A74801F077FB062878D03F2C06D8042DCC
:1012E00004D0A44B1B5D0B2B40F28980A4F10E06A9
:1012F000F6B2092E30D83046A5F10201B1FA81F1DB
:101300004909FFF7E7F93F2C3DD8E1089A4804F076
:1013100007070123425CBB40002D66D113434354B1
:1013200000222146924801F05FFB0B2D00F2B080B5
:10133000DFE815F00301F20073008A00CA00AE0076
:101340000C00AE00AE00AE00A700BA00A4F112037C
:10135000012B40F2FD80F8BDA4F11F03082B09D931
:10136000A4F13103012B03D9A4F14003052BCAD802
:10137000172CC0D9272C3ED9322C00F28F80A4F133
:101380001A00C0B2B8E700222146794801F02CFBD0
:101390000B2D7DD801A353F825F000BF5713000093
:1013A000571300001B1400004914000057130000DD
:1013B000911400004D1300009114000091140000DE
:1013C0009114000083140000571300006B4B1A782F
:1013D000002A82D0062D00F0C2806949FF20002239
:1013E0003F2C08701A7081D879E70B2D96D022EA2D
:1013F0000303435494E7A4F11300C0B27CE76148AF
:1014000003EB430300EB430000F04AFD00283FF4E8
:101410006DAF2046FFF756FA68E7092E77D9A4F199
:101420001F03082B73D9A4F13103012B03D9A4F1B5
:101430004003052B8FD83F2C69D9214602224C4806
:10144000BDE8F84001F0C2BAA31EDBB21C2B04D8E1
:101450004D4A22FA03F3DB0704D4A4F12303032B40
:101460003FF679AF2046012102F05CFC20460021C6
:1014700002F0A4FA214603223D48BDE8F84001F0FD
:10148000A5BA21460A224148BDE8F84001F06EBEE7
:101490003F493748BDE8F84001F04EBA412C2ED8FC
:1014A000A4F13700C0B227E72046022102F03AFC3F
:1014B00021460B222E4801F089FA214601222C48B0
:1014C000BDE8F84001F090BA04222146284801F016
:1014D0007DFA284B1B5DFF2B09D02A4803EB430301
:1014E00000EB430000F0DCFC00287FF434AF4FF049
:1014F000FF3220461146BDE8F840FFF7A3B9432C60
:1015000094BFA4F12D00A4F12B00C0B2F4E6002199
:10151000204602F007FC90E72146154801F052FAF8
:10152000032820D02046012102F0FCFB21460122A5
:101530000F48BDE8F84001F049BA2046002102F00A
:10154000F1FB214600220A48BDE8F84001F03EBA0E
:10155000214606220648BDE8F84001F037BA3F2C84
:101560007FF6BFAEC2E60021204602F0C7FBD9E7F6
:101570000014FF1FBC12FF1F1013FF1F7812FF1F64
:101580003007FF1F2013FF1FFF113C188013FF1FA0
:101590000892000010B50023591CCCB2A3F111022F
:1015A000462CD2B203D0012A09D92346F4E7074BCF
:1015B00007480122BDE810401A7000F04FBD062117
:1015C0002046FFF77BFE2346E6E700BF7812FF1FA9
:1015D000A807FF1F2DE9F041603882B00C461A2899
:1015E00038D8DFE810F04600370037003700370002
:1015F00037003700370037004F0037007D003700D5
:10160000E00037001F013301370037003700370093
:10161000370052013700950137003A00C74E96F95E
:101620000050062D00F34582062C00F03782D17859
:10163000927802EBC112D2B24FF0FF34691C49B26A
:1016400001EB4105BE4F3170A9007D1878546C60E4
:101650002A726B7202B0BDE8F0810129FAD9517883
:10166000137813EBC11340F06681B64B01221A6068
:10167000F0E7B54813460A46602102B0BDE8F041E4
:1016800001F080BDF021B14801F05AF96A21AF485C
:1016900001F056F9F2240025092C40F21282EBB237
:1016A000A3F11F02082A40F22082A3F13102012A8D
:1016B00040F21B82A3F14002052A88BF7F2140F23D
:1016C0001482A248013501F03BF90134462DE4B201
:1016D000E2D19E48F72102B0BDE8F04101F030B9F7
:1016E000F0219A489A4F01F02BF96C21974801F0AC
:1016F00027F9FE2600253F2DECB217D8002193488C
:1017000001F01EF90121914801F01AF90B218F48CF
:1017100001F016F901218D4801F012F901218B48E1
:1017200001F00EF90121894801F00AF9A4F10E0334
:10173000092B40F2D181A4F11F03082B40F2CC8188
:10174000A4F13103012B40F2C781A4F14003052B22
:1017500040F2C2811C2E04D827FA06F3DB0700F101
:101760008A81A4F12303032B40F285813F2D07D802
:101770000421764801F0E4F80E21744801F0E0F805
:10178000A4F11203012B40F29E8121466E4801F024
:1017900095FC01357F216D4801F0D2F80136462DC8
:1017A000F6B2A8D195E700293FF454AF1478674802
:1017B000F02101F0C5F86E21644801F0C1F821461E
:1017C000624801F0BDF8452C83D821465F4801F0FE
:1017D000F9F801465D4801F0B3F821465B4801F095
:1017E000FDF800F07F01594801F0AAF8214657485A
:1017F00001F0F4F84FF680730340002B40F0448171
:101800002146524801F0EAF810F4404F3FF461AF2E
:1018100021464E4801F0E2F8C0F386314B4801F012
:101820008FF856E701297FF615AF022C517807D0C3
:101830009378032C41EAC3111CBFD37841EA83316A
:10184000107802B0BDE8F041FEF72ABE04297FF609
:1018500001AF14783F2C3FF6FDAE3E4B55781B5D33
:101860009678D77892F804800B2B40F2EC8005EB49
:10187000C611204607EBC812FEF7E4FF20460421FC
:1018800002B0BDE8F041FFF719BD5378980603F0A8
:10189000180100F1D18083F04003C3F38013107866
:1018A00018293FF6D7AE01A555F821F0EF19000031
:1018B000551600005516000055160000551600007C
:1018C000551600005516000055160000D3190000EB
:1018D000551600005516000055160000551600005C
:1018E0005516000055160000551600001D16000084
:1018F000551600005516000055160000551600003C
:10190000551600005516000055160000611900001C
:10191000012906D95178137813EBC1131CBF0E4A65
:1019200013600E4B1B78002B7FF494AE02B0BDE821
:10193000F041FFF72FBE034A13608BE63007FF1F0D
:101940001812FF1F3407FF1F8013FF1F0014FF1F13
:10195000FF113C18BC12FF1F1412FF1F7812FF1F4B
:101960006D4E96F90070002F40F3A5806B4D2B78DB
:10197000834200F0A380002303E015F82220824276
:1019800008D00133DBB2BB4203EB43021946F4DD5E
:1019900000231946581C4A1C02EB4202072BC3B213
:1019A00005EB820401EB410019460DD815F8222001
:1019B00005F8202005EB800294F808E06068647A5E
:1019C000506082F808E05472BB42E3DD013F37709B
:1019D00040E6062C45D0D178927802EBC112D2B203
:1019E0004FF0FF3102B0BDE8F041FFF755BB4C4B63
:1019F00001214000022C83F83B0083F85E1083F83D
:101A00005D1088BF02250ED95119535D49784448AD
:101A1000019203EBC1110235C9B2EDB200F00AFB2D
:101A2000AC42019AF0D801213D4800F06FFC41F230
:101A30006803013BFDD10DE63A493B4802B0BDE8E1
:101A4000F04100F079BF394803EB430300EB43005A
:101A500000F026FA00283FF40AAF2046FEF732FFD6
:101A600005E711795679D578947801EBC612D2B290
:101A700004EBC511B6E703212B4800F061FF0821F4
:101A8000294800F05DFF71E62146274800F0A6FFD7
:101A9000C0F3C611244800F053FFB1E692F805E008
:101AA0001179D778947801EBCE12D2B204EBC71437
:101AB000C4E51F49C1E7FF233370CBE500210B4686
:101AC00068E72146FDE50621174800F039FF0121AE
:101AD000154800F035FF58E60221134800F030FFAA
:101AE0000A21114800F02CFF34E6172DE9D9272BE5
:101AF00002D8133BD9B2E4E5322B02D81A3BD9B253
:101B0000DFE5412B02D8373BD9B2DAE5432B94BF4E
:101B10002D3B2B3BD9B2D4E53007FF1F1812FF1F16
:101B2000A807FF1F1C9200000014FF1F2013FF1FB7
:101B30003C9200002DE9F843DFF8C09025480123CE
:101B400089F8003001F0AEFA234B1A7822B123490C
:101B5000FF20002208701A70214B2248224903F10D
:101B60000904002203F8012FA34200F8012F01F815
:101B7000012FF7D11D4D00244FF0FF08E3B2A3F170
:101B80000E010929A3F11F07A3F13106A3F14002B9
:101B90004FF00101184617D9082F15D98E4213D9D5
:101BA000052A11D9FFF78AFB0134462C05F8018F6D
:101BB000E4D10F490F4A104800230B7013700360E3
:101BC00089F80030BDE8F88318460221FFF776FB5C
:101BD000EAE700BF8013FF1F7812FF1F3007FF1FC7
:101BE0000313FF1F0F13FF1FFF11FF1FBB12FF1F68
:101BF0001012FF1F6813FF1F1C13FF1F7013FF1F1E
:101C000038B50222052323492348244D244C00F0F3
:101C10002FFE244A2048E02100F098FE224A1E4868
:101C2000902100F093FE214A1B48C02100F08EFE57
:101C30001F4A1948D02100F089FE1E4A1648F42197
:101C400000F084FE1C4A1448F52100F07FFE1B4A78
:101C50001148F02100F0B0FE194A0F48FF2100F0B2
:101C6000A3FE0D4800F0D4FD4FF461410A4800F096
:101C7000FFFE144A14491378002BFCD00B78DB07C5
:101C8000F9D52B6820681B1A0E2BF4D9BDE8384013
:101C9000FFF750BF509200000014FF1F5016FF1FA7
:101CA000B41AFF1FA104000029050000D50600009A
:101CB00029070000BD1200006D040000D5150000CA
:101CC000351B00003417FF1F4C17FF1F70B40F4E59
:101CD0000023358803710C21012215424FEA42048A
:101CE0000AD00379013903F10103A2B20371F4D1DF
:101CF000FF23037170BC704705490B88154323EA25
:101D0000020235800A8070BC704700BFC813FF1FF5
:101D1000C413FF1FF8B504790B2C01D92046F8BD78
:101D20000646CDB2284601211F46144601F0FAFFAF
:101D30001B4832791B4B01889D54012393400B4370
:101D4000194903800B681948C4EB0414C7EB071743
:101D500045F2E47513F480033480778020F8125044
:101D600016D10A68124D1348DFF85CE0124F134C8D
:101D700042F480020A604FF6FF722A601049CEF8E2
:101D8000003042F6A27520223B600560016022709F
:101D90000C4B4FF480121A6034792046F8BD00BF16
:101DA000C413FF1FE413FF1F3C800440CC13FF1F2C
:101DB00004600340006003400C60034034E400E032
:101DC000A22F010004E100E0086003404FF4166315
:101DD0004FF40872FFF79EBF03790B2B14D830B471
:101DE00001220A4D0A4C2988208802FA03F3DB43BA
:101DF0001BB203EA010203402A8023801AB9054B73
:101E00004FF480121A6030BC704700BFC413FF1F2C
:101E1000C813FF1F84E100E003790B2B26D8B1F52E
:101E2000087F08DB0288C1EB011191421FDA1949D2
:101E300021F81320704710B44288048821EAE17128
:101E4000B429A2EB0402A8BFB421B32A17DD1248BB
:101E500001FB02F180FB01020A44C917C1EBE21148
:101E600021440C4A5DF8044B22F813107047428855
:101E70008A42A8BF0A46074921F81320704707483D
:101E800002FB011180FB0102C917C1EB6211214461
:101E9000E7E700BFCC13FF1FB7600BB6A379422D55
:101EA00000790B2806D8044B1B8843FA00F000F099
:101EB0000100704700207047C413FF1FF8B5324E71
:101EC000324D96F900202B881341DC0753D4304C57
:101ED00094F900300B2B0EDC298841FA03F2D0076D
:101EE00002D52EE0D2072BD401335BB20C2B41FA82
:101EF00003F2F7D1237027480268C2F5922101F559
:101F0000787140F2DB53994217DD4EF660238B4225
:101F1000A8BF0B461A44204902600E681F4D204A94
:101F20001C4F334442F6A3760B602E600368934245
:101F300002D900233B602370F8BD40F2DC53E9E78F
:101F40002370184A0121D05C01F0D8FE94F90030CA
:101F5000104A1549104831F813501168337029445C
:101F6000116002680D492A44013342F6A3750260EC
:101F70000D602370F8BD0B4B0021985C01F0BEFE94
:101F80000C233370A3E700BF3807FF1FC413FF1FE4
:101F9000C613FF1FC013FF1F0C6003400060034007
:101FA000DF930400E413FF1FCC13FF1F00207047D2
:101FB00090F8392090F83800101A704790F83830AF
:101FC00090F839209A4205D95A1C034480F83820E9
:101FD000187E70474FF0FF30704700BF90F83830E0
:101FE00090F839209A4286BF1B18187E4FF0FF30B8
:101FF000704700BF704700BF38B50546B0F85E00B7
:1020000090B195F85D301446C3F1210294420CD88A
:1020100005F13B001844224601F0F6F995F85D30D1
:10202000234485F85D30204638BD012014462871D0
:10203000EEE700BFB0F85E306BB190F85D30202B5A
:1020400007D8C218013380F85D30012082F83B10B8
:102050007047012303710020704700BF00234269CD
:1020600080F8383080F8393080F85C3080F85D30A6
:1020700080F85E3080F85F3006CA30B40D680469BD
:1020800043662A4383660A60A370426990F8613010
:102090001649146813441D7A5B7B01EBC5051B02CE
:1020A0006D6803F4E06343F064032B6090F86230E2
:1020B00013449D7CDB7D01EBC5011B02496803F4E1
:1020C000E06343F064030B6021685368194205D054
:1020D00003692C225A70036904229A710369202231
:1020E0005A71036980229A7030BC7047A89300002F
:1020F00038B50269D478E4B2E106054624D5102348
:10210000D37063061FD504F0040404F0FF03002C11
:102110005AD042496A6E00230B7085F85D30002A60
:1021200066D0904795F85D30002B61D02B69D022A6
:102130009A702B6995F83B201A712B69012285F85A
:102140005C200222DA7038BD04F0400303F0FF0087
:10215000002BD8D19379DBB203F0600160294ED017
:10216000937803F0100303F0FF01B3B114F00104FE
:1021700037D195F85C3095F85D1099424BD9591CD0
:102180002B4485F85C1093F83B3013712B69D022F7
:102190009A702B690222DA70D5E785F8601093797E
:1021A00043F0200393712B6995F839101A791F2990
:1021B000D2B2C6D8194800780028C2D068180131B8
:1021C00085F839100276BCE72A6985F83930C023D2
:1021D00093702B69114A1979012111700222DA706A
:1021E000B1E7C02393702B691A790222DA70AAE74B
:1021F0000122002385F85D2085F83B3096E703F047
:10220000DF039371AB6E23B185F8380095F8390080
:1022100098472A69A4E71471B8E700BFF013FF1FBD
:102220002DE9F047374FDFF8E0903B68026982B054
:1022300006460093DDF8008000214FF49675D378B0
:102240009B065BD53B680193019BC8EB03030F2BF7
:10225000F5D949B1102BF2D000209070336980225B
:102260009A7002B0BDE8F087726996F86130134445
:102270000521187A01F056FD726996F86130134411
:10228000012193F812A0504601F04CFD09240021D1
:10229000504601F033FD2B46013BFDD10121504654
:1022A00001F02CFD2B46013BFDD1013CEFD17069C3
:1022B00096F8611001444FF416720C7A4B7B09EBCF
:1022C000C4011B02496803F4E06343F064030B603C
:1022D00096F862300344997CDB7D09EBC1011B0257
:1022E000496803F4E06343F064030B60013AFDD1F5
:1022F0003269D3789B064FF00101A3D4012002B0CC
:10230000BDE8F0875016FF1FA8930000F0B50369E1
:102310001222DA700269937803F0200385B0044634
:102320000D46002B5ED0B42393703C4922690B68A4
:102330000093009E05E00B680193019B9B1B042BFF
:1023400042D8D37803F0200303F0FF00002BF2D033
:1023500094F85D30002B31D04FF0000E4FF0020C9E
:1023600004EB0E0393F83B3013710B680393039F48
:10237000206907E09B060DD50B680293029BDB1BCF
:10238000052B28D8C378DBB203F0020202F0FF0667
:10239000002AEFD080F803C02669F378DBB2DF06AD
:1023A00032462DD49F062BD5DB0731D40EF1010E1A
:1023B00094F85D305FFA8EFE7345D1D800201DBBC6
:1023C000002384F85E3004E09070236980229A70C4
:1023D000042005B0F0BD86702369802204209A7025
:1023E00005B0F0BD03F0FF06FFF71AFF10B9042097
:1023F00005B0F0BD236984F85F60B0229A7094E75D
:102400008023B3700420DAE726698023B370D7E70E
:10241000BEF1000F0CBF02200320F6E75016FF1F8D
:102420002DE9F04106690025122780F8385080F820
:102430003950F770D0F810C09CF802E00EF0200E72
:1024400088B00446884615461E46BEF1000F49D0A6
:10245000B4238CF802307A4B21691A680092DDF8B7
:1024600000E006E01A6801920198CEEB0000042813
:1024700030D8C87800F0200000F0FF070028F1D025
:102480004FEA480242F00102D2B20A711A6802927F
:10249000DDF808E0206906E01A6803920399CEEBA4
:1024A000010105292AD8C17801F0020101F0FF07D6
:1024B0000029F1D04FF0020C80F803C02269D178D6
:1024C00011F0110722D12DBB002E0CBFA0238023B9
:1024D000937003E08F70236980229A70384608B0A9
:1024E000BDE8F0810EF0FF07FFF79AFE0028F5D057
:1024F000236984F85F70B0229A70ACE78770236913
:10250000802238469A7008B0BDE8F081802393702D
:102510000027E3E7012D78D0A021917021690A7985
:10252000BE4667464FF0A80C1A680492049805E06E
:102530001A680592059A121A052A4DD8CA7802F02F
:10254000020202F0FF08002AF2D0CF702169CA7897
:10255000D2B212F0100F08465DD192065BD5013D54
:10256000EDB2012D4CD0BEF11F0F3ED90A79012DDD
:10257000DAD11A680692069D05E01A680792079A52
:10258000521B052A56D8C27802F0020202F0FF015F
:10259000002AF2D00223C3702269D378DBB2D906B5
:1025A0003BD49B0637D5B023BEF11F0F937043D8A1
:1025B000226904EB0E0312791A760EF1010E5FFA0E
:1025C0008EFE00BF00BF00BF16B1236980229A7043
:1025D00084F839E0774681E781F802802369802218
:1025E0009A70774684F839E078E704EB0E0291F8A8
:1025F000048082F818800EF1010E5FFA8EFEB6E7B5
:1026000081F802C021690846ADE7A82191702069D0
:10261000BE460279ADE7774660E710214FF4967326
:10262000D170013BFDD12269937803F0F70377461F
:10263000937053E78170D1E723691B79C1E700BF2D
:102640005016FF1F0148FFF753BD00BFA807FF1F2B
:102650000148FFF74DBD00BF1408FF1F0148FFF7F9
:1026600047BD00BF3C07FF1F034B1B6808460BB16B
:1026700011461847704700BF4016FF1F034B1B68E9
:1026800008460BB111461847704700BFF813FF1FEB
:10269000034B1B6808460BB111461847704700BF33
:1026A0003816FF1F034B1B6808460BB1114618472D
:1026B000704700BFFC13FF1F034B1B6808460BB19C
:1026C00011461847704700BF4416FF1F034B1B6895
:1026D00008460BB111461847704700BF3C16FF1F54
:1026E000024B1B680BB1084618477047F413FF1FD5
:1026F000074810B404683CB108461146C9B21A46EE
:1027000023465DF8044B18475DF8044B704700BF43
:102710003416FF1F024B1B6803B11847704700BFF8
:102720003016FF1F20B140300522022100F0A4BA6C
:10273000704700BF70B5064606F1440440300025DE
:1027400000F026FA31462046402200F0E1FA204609
:102750002B4686F8C450C6F8C85086F82C52214A39
:10276000E02100F0FDFA2B4620461F4A902100F0A0
:10277000F7FA2B4620461D4AC02100F0F1FA2B46FD
:1027800020461B4AD02100F0EBFA2B462046194A7E
:10279000F42100F0E5FA2B462046174AF52100F017
:1027A000DFFA2B462046154A712100F00DFB2B461F
:1027B0002046134AF02100F00DFB33462046114A13
:1027C000792100F0EFFA334620460F4AF92100F054
:1027D000EFFA20462B460D4AFF2100F0E9FA304679
:1027E00070BD00BF692600007D260000B9260000EC
:1027F000CD26000091260000A5260000E12600005D
:10280000F1260000412800002527000015270000C0
:10281000012380F82C32704790F8C43003B9704718
:1028200010B5D0F8C820144682B014F8021B5278B4
:102830000094023B403000F0EDF902B010BD00BF43
:1028400008B1FFF7E9BF704738B500F1400504460D
:10285000C0F8C010284600F09FF928460522022142
:1028600000F00AFA2046BDE83840FFF7D5BF00BFA8
:102870002DE9F0410D4606461C49284690461F4664
:1028800006F0EEF82F210446284605F07BFFE8B15C
:10289000451C1CB3641B023486F8C440D6F8C8003B
:1028A00005F0ECFB96F8C440601C05F0DFFB034626
:1028B000294600251D5583F800805F70C6F8C800C2
:1028C000A21E0230BDE8F04105F028BF5C21284679
:1028D00005F058FF0028DBD1002CDBD1284605F09D
:1028E000AFFE023086F8C400D8E700BF189300009E
:1028F000D0F8C00003681B69184700BF10B5044634
:10290000D0F8C00003685B699847431C06D0C1B289
:1029100004F14400BDE8104000F0E0BA10BD00BF73
:1029200092B2403000F03AB992B2403000F05AB959
:10293000403000F0B9B900BF403000F0DBB900BF53
:10294000D0F8C00003681B68184700BFD02915D015
:1029500006D9F4290BD0F52916D0E0290AD0704702
:1029600090290ED0C02908D1094B1A607047094B35
:102970001A607047084B1A6070477047074B1A601F
:102980007047074B1A607047064B1A60704700BFCC
:102990004416FF1F3816FF1F4016FF1F3C16FF1F6F
:1029A000F813FF1FFC13FF1FFF2904BF014B1A6020
:1029B000704700BF3016FF1F014B1A60704700BF01
:1029C0003416FF1F014491F8CC007047014491F880
:1029D000CC307F2B18BF81F8CC20704700EB8101F1
:1029E000D1F81401704700BF00EB8101C1F8142138
:1029F000704700BF2DE9F041002ADDF8188015DD91
:102A000017461E460D460024404601F091F901216B
:102A1000284601F073F90134304601F089F9E4B237
:102A20000021284601F06AF9BC42EDDBBDE8F081E7
:102A300030B583B00446D22501210D2001F072F992
:102A40002046282302220D210095FFF7D3FFFA200C
:102A500001F06EF920460095282305220D21FFF78D
:102A6000C9FF7D2003B0BDE8304001F061B900BF6F
:102A700090F82C3210B504460BB9FFF7D9FF204669
:102A80000249BDE81040FFF7DFBE00BFE808FF1FA6
:102A90000148FFF74FBE00BF0014FF1F2DE9F04FA4
:102AA000002B14BF1F464FF0FF3781B01478002968
:102AB00040D000258246904602EB01092E46C346CF
:102AC000DAF8000018F8011B0368A94021431B68CD
:102AD00001F07F0198479BF80030C5F107040135EC
:102AE00043FA04F4062D06F10106E4B20ED824E000
:102AF000DAF80000036804F07F01073D1B6898477F
:102B0000062D06F101064FEAD41416D9B742EFD8C4
:102B1000C1450FD1B7420DD9DAF800000121036891
:102B2000A94001391B68214001B0BDE8F04F1847AA
:102B3000002DEFD101B0BDE8F08FC145F8D0B7420C
:102B4000BDD8F7E72DE9F0410568FDB11E462B68B9
:102B500004460F4628461B68F02190469847206897
:102B600003686F211B6898472068036839461B6813
:102B700098474346414620463246FFF78FFF20687C
:102B80000368F7211B68BDE8F0411847BDE8F081F4
:102B900000220260704700BF0160704710B50368F3
:102BA00082B0ADF8062063B10F29044603D892B273
:102BB000B2F5804F07D320460DF106030222FFF73E
:102BC000C1FF02B010BD1A6841F0E001126818465A
:102BD00090470223204619460DF10602FFF75EFFDB
:102BE00002B010BD10B5036882B0ADF806207BB10D
:102BF0001A6801F00F01044641F09001126818466E
:102C000090470223204619460DF10602FFF746FFC2
:102C100002B010BD2DE9F0470768089C4FB31E466F
:102C20003B68054689461B68F02138469046984720
:102C30002868036879211B68984728680368494613
:102C40001B6898472868036841461B6898474EB13F
:102C500026440121224600230C442846FFF71EFF8C
:102C6000B442F6D128680368F7211B68BDE8F04735
:102C70001847BDE8F08700BF0368A3B170B51646DA
:102C80001A6804460D461846F921136898472068CB
:102C9000036829461B6898472068036831461B680B
:102CA000BDE87040184770472DE9F0410768FFB153
:102CB0001C463B68054688461B68F0213846164688
:102CC00098472868036841461B6898474EB12644D8
:102CD0000121224600230C442846FFF7DFFEB442C0
:102CE000F6D128680368F7211B68BDE8F041184752
:102CF000BDE8F08170B5054608460C4605F0A0FC1D
:102D00002346024671212846BDE87040FFF7CCBF3C
:102D100030B4B1FA81F500246D0905700473447371
:102D2000046104758461C461046244628462C462A3
:102D3000046344638463C463046444648464C46457
:102D4000046544658465C465046644668466C46637
:102D50000467446741608260846730BC704700BF8D
:102D6000D02915D006D9F4290BD0F52916D0E029A1
:102D70000AD0704790290ED0C02908D1426543621D
:102D80007047C265C3627047C264C36170477047D1
:102D9000826583627047026503627047026603635F
:102DA000704700BF792904BF02674363704700BFC3
:102DB000F92905D0FF2902D18267836470477047E3
:102DC00042678363704700BF712904BF8266036452
:102DD000704700BFC2664364704700BF2DE9F041F1
:102DE00043681978712904463ED0792931D1056F9D
:102DF000002D65D08269022A64D9032A6CD0043A76
:102E00005608F51C1D44991CDA7801F8012F187931
:102E1000A94242EAC0120A7003F10203F4D1351D3F
:102E2000A368AB4208D8636E4BB101222270E06BFD
:102E30009847A368AB4202D9636800225A55636879
:102E4000256F9A785978606BAC460333BDE8F04142
:102E50006047C56E002D33D08269406CAC460133AB
:102E6000013ABDE8F0416047826E4AB38769013F8D
:102E700030D01946002500E005464A7803F8012FB6
:102E800011F8026F681C42EAC612B7EB400F1A70C5
:102E9000F2D80235A368AB4208D8636E4BB1012269
:102EA0002270E06B9847A368AB4202D963680022A6
:102EB0005A556168A36E206C0131BDE8F041184796
:102EC000BDE8F0810023AC46406B1A461946BDE8C8
:102ED000F04160470125DDE71546A1E7037D70B5A8
:102EE00004460D469BB1F72900F08280866983680D
:102EF0009E424ED3436E3BB101220270C06B984795
:102F0000A3689E4245D3A6690136A66170BD0369D8
:102F1000F3B10A061CD482685E1EB242066156D91D
:102F200063689D552669002E50D1237B002B4DD020
:102F3000D02B00F08B8065D9F42B00F0A880F52B06
:102F400000F09B80E02B00F08B800023237370BD8A
:102F5000EF2D24D9F02D46D027D9F92D34D062D9C0
:102F6000FF2D66D1A2680023236123736373194682
:102F70002AB16268D154A26801339A42F9D8A26F8B
:102F800000232375A361002A49D0A06CBDE87040DE
:102F9000104763689D55A6690136A66170BD05F0AE
:102FA0000F03637305F0F005D4E7C02D08D037D9BF
:102FB000D02D05D0E02D3BD102232573236170BDB8
:102FC00001232573236170BD636FBBB970BD436E70
:102FD000002BA8D001220270C06B9847A3689E42C4
:102FE0009ED326699FE7012200232275A36170BD4D
:102FF00000230375BDE87040FFF7F0BEA06BBDE88D
:1030000070401847902B15D0C02B9ED1636D002BBC
:103010009BD06268617B1278606A984795E770BDC3
:10302000902DC9D070BDA5F1F403012BC4D970BD9A
:1030300070BD70BD236D002B87D06068617B057803
:103040004278206A02EBC51298477EE7A36D002BF9
:103050003FF47BAF6268617B1278A06A984774E79F
:10306000E36C002B3FF471AF6068617B05784278B8
:10307000E06902EBC512984767E7236E002B3FF427
:1030800064AF6168206B0A78497898475DE7E36D23
:10309000002B3FF45AAF6168E06A0A784978984794
:1030A00053E700BFFF2380F83C30002200F1080303
:1030B000383043F8042F8342FBD17047CB1F032BDA
:1030C00010B50C4617D9012932D9A1F11F03032BE2
:1030D0000CD80A212448FFF733FC012C08BF032138
:1030E0000DD12148BDE81040FFF72ABCA1F12F0304
:1030F000012BEED910BD0A211B48FFF721FC092C3A
:1031000014D00A2C20D0072C20D0082C20D01F2C23
:1031100020D0202C20D0222C20D0212C20D02F2CAD
:1031200020D0302C0CBF0D210021DAE70421D8E794
:103130000A210D48FFF704FC002CCED102210A48D9
:10314000BDE81040FFF7FCBB0521CAE70621C8E730
:103150000721C6E70821C4E70921C2E70A21C0E721
:103160000B21BEE70C21BCE70014FF1F0A2A01D087
:103170000020704708B50248FFF728FC012008BD71
:103180000014FF1F602901D0002070472DE9F8438B
:103190001C7804F0F001302904F00F0436D022D856
:1031A00010295FD020291BD1013CE4B2052C17D88F
:1031B0005E4951F824609EB1012A11D9023A02F009
:1031C000FE0502351C461D446378A178326803EB86
:1031D000C111C9B20234136830469847A542F3D1F1
:1031E0000120BDE8F88350296FD06029F8D1013C57
:1031F000E4B2052CF4D84D4B53F824000028EFD04E
:103200000368DB6898470120BDE8F88359780546D4
:10321000002967D00129E3D190F93C0000287CDD2A
:103220002B79A3427FD0002302E00979A14208D084
:103230000133DBB2834205EB03011A46F5DD0023BF
:103240001A46591C072BCBB205EB02011A469CBF4C
:103250004C790C718342F4DD013885F83C00012083
:10326000BDE8F883072CBBD8013CE4B2052CB7D8E5
:103270002E4A52F82450002DB2D02D492D4A11F873
:10328000048012F804905E789F78DC78B8F1000F23
:1032900010D0B9F1000F0DD00A2241462648FFF7A1
:1032A00095FB494624480A22FFF790FB404600213F
:1032B00000F038FD2B68A10341EAC71128463143CD
:1032C000DB6998470120BDE8F883013CE4B2052C96
:1032D00086D8164B53F82400002881D003685B6A17
:1032E00098477DE790F93C0006283FF779AF022A1E
:1032F0000FD9D9789B7805EB840243EAC113D360D8
:10330000013040B22B1885F83C001C710120BDE84B
:10331000F88305EB8403D960F2E7FF2385F83C309E
:103320000846BDE8F883002213468AE72093000090
:1033300038930000409300000014FF1F024A02600F
:10334000FF2280F83C2070475093000090F93C2009
:10335000002A52DB2DE9F8430023DFF8A4908046D1
:103360001F4643441D796B1EDBB2052B37D859F835
:103370002360002E33D0326808EB85031269DC68C5
:1033800030469047002828DDF0211C48FFF7D8FA86
:1033900060211A48FFF7D4FA45F040011748FFF7BB
:1033A000CFFA1CBB336830461B6998470446002C93
:1033B0000FDD336830465B699847C5B205F07F0181
:1033C0000E48FFF7BDFAE9090C48FFF7B9FA013CCE
:1033D000EFD1F7210948FFF7B3FA98F93C200137FC
:1033E000FFB2BA423B46BCDABDE8F88333683046E8
:1033F0001B6998478442D5DAD9E770470014FF1F4C
:1034000020930000FFF7A2BF844641EA000313F0B7
:1034100003036DD1403A41D351F8043B40F8043BDB
:1034200051F8043B40F8043B51F8043B40F8043B9E
:1034300051F8043B40F8043B51F8043B40F8043B8E
:1034400051F8043B40F8043B51F8043B40F8043B7E
:1034500051F8043B40F8043B51F8043B40F8043B6E
:1034600051F8043B40F8043B51F8043B40F8043B5E
:1034700051F8043B40F8043B51F8043B40F8043B4E
:1034800051F8043B40F8043B51F8043B40F8043B3E
:1034900051F8043B40F8043B403ABDD2303211D3DE
:1034A00051F8043B40F8043B51F8043B40F8043B1E
:1034B00051F8043B40F8043B51F8043B40F8043B0E
:1034C000103AEDD20C3205D351F8043B40F8043BDE
:1034D000043AF9D2043208D0D2071CBF11F8013BDC
:1034E00000F8013B01D30B8803806046704700BFA2
:1034F000082A13D38B078DD010F003038AD0C3F1B1
:103500000403D21ADB071CBF11F8013B00F8013B92
:1035100080D331F8023B20F8023B7BE7043AD9D351
:10352000013A11F8013B00F8013BF9D20B78037026
:103530004B7843708B78837060467047374A3849C0
:1035400013681B06FCD40B6813F08003F8D172B625
:1035500034490A78002A5FD0334A3448F0B4344CF6
:10356000176806682568D4680C303E441432006839
:103570001268304F35442C4420440244C2F34E02BA
:103580002D4E2E482E4D2F4C42F400423A603768A3
:1035900006682D682C4A24680C303E440068126886
:1035A0002A4F35442C4420440244C2F34E02284E94
:1035B0002848294D294C42F400423A603768066891
:1035C0002D68274A24680C303E4400681268254F55
:1035D00035442C4420440244C2F34E02224E234878
:1035E000234D244C42F400423A60376806682D6847
:1035F000214A24680C303E440068126835442C444B
:1036000020440244C2F34E021C4842F400420260CD
:103610000B7062B6F0BC704762B6704724B00340CE
:1036200024B00B404916FF1F38B003403CB00340A4
:1036300040B003402CB0034058B003405CB003409E
:1036400060B0034064B003406CB0034030B003404E
:1036500038B00B403CB00B4040B00B4044B00B4086
:103660004CB00B402CB00B4058B00B405CB00B4042
:1036700060B00B4064B00B406CB00B4030B00B40FE
:1036800030B42948294A2A4B2A4D6024E12104708C
:1036900011701B78284C082B30D00A2B274828495A
:1036A00037D00C2B0CBF35225D2212232A602360F9
:1036B00002600B60234B24491B78244ABBB10123D1
:1036C0000B601360224B23491B78234A012B26D918
:1036D000042B0FD9082B1ED9102B94BF86238723C8
:1036E0000B6013601D4B01221A7030BC70470B60D9
:1036F0001360E7E784230B601360F3E700F58E2087
:103700000F490830212213232A60236002600B60D6
:10371000D0E73922F7E785230B601360E2E78023C7
:103720000B601360DEE700BF004007400140074028
:103730008008FF1F08B003400CB0034008B00B40E6
:103740000CB00B404C16FF1F20B0034020B00B40C4
:103750008108FF1F24B0034024B00B404916FF1F0F
:1037600047282FD8334B2DE9F0411E5CFF2E2BD07C
:10377000314B1B78002B2AD132062CD472B62F4D38
:103780002F4C2F46012326602B7062B672B6236839
:103790001B060CD43B781BB9F4E72B78002BF1D037
:1037A00062B601F08FFE72B623681806F5D5254B78
:1037B0001B6800222A7062B6234A107843FA00F090
:1037C000BDE8F081002070470020BDE8F081FFF7E0
:1037D000B5FE3206D2D572B61C4DDFF87C801C4C8B
:1037E00006F04007FFB206F03F06D8F80030DFB120
:1037F00023F01003C8F8003001232660134A2B7011
:1038000062B672B6236819060CD413781BB9ECE7BC
:103810002B78002BE9D062B601F054FE72B6236813
:103820001B06F5D50B4BC3E743F01003C8F8003077
:10383000E2E700BF609300004916FF1F4B16FF1F11
:1038400000B0034010B003404816FF1F4A16FF1F88
:1038500000B00B4010B00B400CB00B400A4A0B49B3
:10386000136843F4805313600B7843B9084BC022AC
:103870001A70084B80F30C0000B218807047044B9C
:1038800080221A70F5E700BF2C8004404C16FF1F01
:1038900021C00C4000C00C400A4A0B49136843F495
:1038A000005313600B7843B9084BC0221A70084BC1
:1038B00080F30C0000B218807047044B80221A700D
:1038C000F5E700BF2C8004404C16FF1F21D00C40B0
:1038D00000D00C4010B4114B53F8302092F88042C5
:1038E00034B1012379B182F880305DF8044B704720
:1038F00003EBC0035B681A6851B922F002021A6038
:103900005DF8044B704782F800315DF8044B704756
:1039100042F003021A605DF8044B7047A893000060
:103920001C4A02EBC00301295B6811D004291BD09B
:1039300052F83000002280F8802229B1022920D0DC
:10394000032922D01A6070474FF480721A607047C2
:1039500052F830004FF4A27280F880121A601A6890
:1039600022F020021A60704752F830104FF4A27211
:10397000012081F880021A601A6842F020021A6061
:10398000704740F203121A6070474FF481721A6058
:10399000704700BFA893000030B4054B054D064C9E
:1039A000002210211A602A602060196030BC704724
:1039B00014D0034004D0034000D0034038B5A0F138
:1039C0004203012B044624D900297ADD994B1B7848
:1039D000012505FA03F28A4202D83F282CD938BDC6
:1039E000C21E012A30D9A0F11D02012A78D90E2861
:1039F0005BD9A4F12302032A5CD9A4F11002012AA5
:103A000094BF8D4A8D4A126802FB011222FA03F319
:103A100020E0884B1B780B2B0AD90C2B1CBF0C3BCE
:103A20001941422C084657D0BDE83840FFF734BF53
:103A3000C3F10C039940F4E72946FFF74BFF2946F1
:103A4000BDE83840FFF76CBF7D4A126802FB0112E7
:103A500022FA03F3A21E242A00F2E380DFE812F028
:103A6000DA00D300CC00C500BE00B700B000A9004A
:103A7000A200E100E100E1009B00E10094008D0064
:103A8000E100E10086007F0078007100E100E100C4
:103A9000E100E100E1006A006300E100E100E10013
:103AA000E1005C0055004E00470044F28412C24021
:103AB000D2079ED5634A126802FB011222FA03F371
:103AC000C8E73F288BD80021FFF704FF20460121DB
:103AD000BDE83840FFF724BFBDE83840FFF7BEBE61
:103AE000594A126802FB011222FA03F3B2E757495E
:103AF000574A0B604FF45173136038BD5549564A0D
:103B00000B604FF45173136038BD5449544A0B6035
:103B10004FF45173136038BD5249534A0B604FF450
:103B20005173136038BD5149514A0B604FF45173C2
:103B3000136038BD4F49504A0B604FF45173136006
:103B400038BD4E494E4A0B6040F24443136038BDC5
:103B50004C494D4A0B6040F24443136038BD4B4919
:103B60004B4A0B6040F24443136038BD49494A4A0E
:103B70000B6040F24443136038BD4849484A0B602B
:103B800040F24463136038BD4649474A0B6040F237
:103B90004463136038BD4549454A0B6040F24443D5
:103BA000136038BD4349444A0B6040F244431360FC
:103BB00038BD4249424A0B6040F24443136038BD6D
:103BC0004049414A0B6040F24443136038BD3F49CD
:103BD0003F4A0B6040F24443136038BD3D493E4AC2
:103BE0000B6040F24443136038BD3C493C4A0B60D3
:103BF00040F24443136038BD3A493B4A0B604FF4EE
:103C00005173136038BD3949394A0B604FF4517311
:103C1000136038BD3749384A0B6040F244431360A3
:103C200038BD3F2C3FF6DBAE7F29D4BF00210121F8
:103C3000204649E78208FF1F08900C400880034097
:103C40000890034008900B4008800B4048900B40C0
:103C50002CB0044040900B4028B0044038900B40FA
:103C600024B0044030900B4020B0044018800B403A
:103C70004CA0044010800B4048A004401880034032
:103C800008B004401080034004B00440408003406A
:103C900018C004403880034014C0044018900C4001
:103CA00004A0044010900C4000A0044018900B4069
:103CB00004C004402880034010B00440208003402A
:103CC0000CB0044028900B400CC0044020900B40E6
:103CD00008C004403080034010C0044048800340C6
:103CE0001CC00440189003403490044010900340DE
:103CF0003090044010900B4000C004403F2801D891
:103D0000FFF7E8BD704700BF3F2806D8044B53F8C3
:103D1000303093F80002C0B270470020704700BFF7
:103D2000A89300003F2801D8FFF7FABD704700BFF5
:103D30002DE9F843054672B6224F234B234A1B68F0
:103D40003C68126862B6520102D5322B88BF01343A
:103D5000B5B3C3F52F3303F21F331D4EDFF8689060
:103D6000DFF868809B084FF47A72A6FB031302FB0E
:103D700004F404EB930472B6D9F800103A68D8F84A
:103D800000E062B6C1F52F3303F21F339B08A6FB98
:103D900003031EF0806FC4EB93034FF47A7002D0DC
:103DA000322988BF013200FB0233B3F57A7F04D396
:103DB000013D05D004F57A74DDE701F083FBDAE715
:103DC000BDE8F8835016FF1F18E000E004ED00E0A6
:103DD000176CC116F8B54E4B4E48DFF85CC14E4C1F
:103DE0004E49DFF858E14E4E4E4D4F4F4FF00062B6
:103DF0001A604FF080521A604FF000521A604FF074
:103E000080421A604FF000421A60002202602823AC
:103E10004EF6FF70CCF80000CEF8003023600EF5AF
:103E2000012E0B6033602B6006F500263B6005F524
:103E30000025A36207F500278B6204F5012401F534
:103E4000012106F6E87605F6E87507F57F6710317B
:103E50000EF1100E203433602B60CEF800303B6042
:103E60000B602360314CBB618B6109212160A7F598
:103E7000002704F58054203F08343A602060BB607E
:103E8000E36047F8041C04F5FD2407F5FE2704371A
:103E900004F2FC7422603860A360FB6044F8041CE8
:103EA000083404F6FC74C7F8FC2F2060A4F5E12464
:103EB000A4F2DC7433602B60C7F8F81F21681C483B
:103EC00041F40071216001681A4C0EF57F4E0EF12D
:103ED000E80E07F5883706F5803605F5803541F0A0
:103EE00000710160CEF8002047F6FF7108223960AA
:103EF00033602B602260FFF7C3FB1920FFF718FF28
:103F000000F002FD40F21310BDE8F840FFF710BFCB
:103F100004E100E004800340148003401C8003405F
:103F2000248003402C800340348003400080034001
:103F30000480044000900C40088003400C80034043
:103F4000431E032B14D872B60A4951F8230068B1F6
:103F500070B4094C058834F81320466841F8236092
:103F6000521B24F8132062B670BC704762B67047CB
:103F700000207047AC16FF1FA41AFF1F013803284A
:103F80000BD872B6074B53F8203043B100205B6862
:103F90000130002BFBD162B67047002070471846F5
:103FA000F9E700BF0017FF1FF0B472B61A491B4EA5
:103FB000012311F8014B194F9A00240742F0010523
:103FC00005D556F8324064B156F83520BAB1013300
:103FD000052BEED162B6124B00221A70F0BC00F035
:103FE0001BBD0F4C0F4D217847F8325007EB4313A0
:103FF00008304A1E5860227062B6F0BC704708490B
:10400000094B0A7847F8353007EBC5030830013A09
:1040100058600A7062B6F0E7109800000000FF1FB9
:104020002917FF1F88004000C8004000431E032BD3
:104030001DD81B4A400140F0100030B4104472B645
:10404000184CE25C032A1BD8DFE802F002121517B5
:1040500003220D88E25410F0080F14BFC8238823F0
:1040600043EA054308310360416062B630BC7047E3
:1040700008300222EDE70522EBE708300422E8E7EA
:10408000094A52F8230038B1084A52F82300416027
:1040900042F8231062B6E9E742F82310034AF7E733
:1040A0000000FF1F3817FF1F0017FF1F1017FF1F0B
:1040B0002DE9F04FDFF804A3DFF804B387B044E044
:1040C000A94F4FEA930807EBC809013ED9F804202D
:1040D00003F00803F6B2A2F1080003F0FF04002B7E
:1040E00040F0FE8057F838301B0C99B222F8081CBB
:1040F000002B00F0EC809D4B22F8064C42F8044C5B
:1041000053F82620002A00F02B82994D55F82630CE
:104110005860984C45F8260034F81630194424F8B5
:10412000161000F059FC002800F01382924A934BBD
:1041300019F0080F00F1080018BF1346C9F8040071
:1041400047F8383008238AF800309AF80040E4B283
:1041500060071AD58A4B1B78A3B18A490A7802F006
:10416000FF0322B1013BDBB20B7003B900BE8649ED
:104170000A7802F0FF032AB1013BDBB20B70002B7F
:1041800000F0BD8104238AF8003004F0080303F036
:10419000FF02002B00F0C8809BF80030DBB21E0944
:1041A0008ED19C08704F57F8342007EBC401C2F33E
:1041B0008302013A49680C2A00F28580DFE802F0A8
:1041C00079798383838383834283838307000868A9
:1041D0006E4B6F4D0193684B4A686E4E47F8343012
:1041E00081B240F28164694B6A602860002201203C
:1041F000A1421A603A61BA61307000F2E380B1F511
:10420000D06F80F02782B1F5817F00F0E08100F26D
:10421000C381802900F03682822940F0DE81A9889E
:104220005D4B01F07F01042900F2D8815B4C8900CD
:104230000B44227062701A78930740F12283207039
:10424000022023E2514B01931A683AB3544B514E6A
:104250005449188834780D784028864645F002087D
:1042600028BF4FF0400E002C84F001043470CEEBD8
:1042700000000CBF8824C82407EBC80680B285F074
:10428000010544EA0E447260188047F838407244D1
:104290000D70002800F0B780019B1A603C4B1A8813
:1042A000B2F5A06F0FD100219A7859703E4B1A7069
:1042B00009E0374A108842F22102904200F0A880BB
:1042C0002D4A47F83420394A012313703AE72A4A25
:1042D0002A4B19F0080F18BF134647F8383031E75A
:1042E00000F09AFB324A334952F82630002B00F096
:1042F0003B8158688C5D42F8260003F10802C9F83A
:104300000420032C05D8DFE804F02C022926022221
:104310008A551A8819F0080F0CBF8823C82343EA6E
:10432000024347F838300DE7E00700F1EB80210643
:1043300000F12881A20706D51F4A204913780220E0
:10434000DBB213700870E30602D51C4B10221A7002
:1043500007B0BDE8F08F04228A55DAE705228A55B6
:10436000D7E703228A55D4E70000FF1FAC16FF1FD2
:104370005816FF1FA41AFF1FC80040008800400005
:104380003417FF1FBD16FF1F3C17FF1F5416FF1FDA
:104390002017FF1FBC16FF1FC02007402C17FF1F50
:1043A0006816FF1F2817FF1F98200740942007401A
:1043B0000017FF1F3817FF1F882007408020074085
:1043C0009020074042F22104A14200F0948043D89B
:1043D000B1F5086F00F0A881B1F5106F40F0FD80D5
:1043E000B84AB94CA978117004F1800503E008348B
:1043F000AC4200F09E81236A1906F8D5606A08383D
:1044000000F00AFBF3E7BEF1400F18BF002243E7BC
:10441000AE4ACD1D11F8013B02F8013FA942F9D186
:10442000AB4A1268862A00F01181AA49AA4E0A787E
:10443000307882F00105002842F002020D700CBFB6
:104440008821C82147F8321007EBC20280F0010032
:1044500000213070516033E742F22124A14240F044
:10446000FE81DFF8BCC29D4B9D49AC78DCF8005062
:104470001D6081460C7000200290804684460446F0
:1044800094490D7845F0020E07EBCE03B9F1000F09
:104490005C600CBF8824C82444EA080385F001044A
:1044A00047F83E3032700C70DFF81CE28A4BDFF8C0
:1044B0002482002840F09880BCF1400F1BD144F0CA
:1044C000020407EBC403029FDFF8FCE15F60002AEF
:1044D00040F09F80020442F0880207444EF83420E6
:1044E00086F800900D703B46402804D100207D4A9C
:1044F000019910800B607C4A01231370E3E600F001
:10450000F7FB3FE6704B784872491A614FF0020E94
:1045100080F800E0754F0A70754919609960754E12
:10452000754D764C9A610D213970FF213170DFF89D
:10453000F4E129702270724D724A8EF800109F27A4
:10454000012406F8047C5D600470DA6007B0BDE801
:10455000F08F6D4A47F83800137801331370F1E596
:1045600043F82600694DD4E58B5D032B67D801A283
:1045700052F823F04541000045410000C9450000C4
:10458000C345000059495C4B80220D2008701A7009
:10459000A2077FF5D8AECFE640F20232914240F05A
:1045A0005681A98801F07F01042916D86A88A2B92A
:1045B0004E4C89000C448146217841F00201217063
:1045C00059E701238B55BDE500238B55BAE5A98832
:1045D00001F07F01042940F24781444B0F221A70F9
:1045E000414A012313706EE640287FF668AF44F01D
:1045F00002040EEBC401029E4E60AAB1444A83F845
:1046000000903346403888F8005040334EF834204C
:104610006DE70204029B86F8009042F0C8020D701C
:1046200003444EF834205FE783F80090029B304A41
:1046300088F80050403840334EF8342057E719F0DE
:10464000080F0CBF022303238B557BE5314A0F2152
:104650001170EAE6304A5468002CBED06888B5F87C
:1046600004E003E00C325468002CB6D01388834277
:10467000F8D153887345F5D1000A03280CBF207880
:10468000108903E0254C022022706270EA88824281
:1046900080F00C810F490D78402A45F0020E9446B7
:1046A00007EBCE0028BF4FF0400C04EB0C03446036
:1046B0000293CCEB02004FEA0C484FF001090022B4
:1046C000C824E9E63417FF1F0000FF1FAB1AFF1FC5
:1046D000AC1AFF1F2817FF1FBC16FF1FB41AFF1FBD
:1046E0004C17FF1F6816FF1F94200740C02007408B
:1046F000880040008820074080200740982007401D
:104700006C16FF1FC016FF1F2917FF1F5816FF1F2B
:10471000C8004000BD16FF1F149800002C17FF1F93
:104720005016FF1F8C200740684A694C127822708F
:10473000ACE76849684B694A02916949694C6A4D1E
:10474000039405964FF0000988461C4616460495CA
:10475000206828B1456800F05FF92846002DF9D19E
:1047600000232360049B30681A46002342F8293056
:1047700028B1456800F050F92846002DF9D10022F3
:104780003260029A98F800301146002241F8042B5A
:10479000039A0291023B4FF0000122F81910032BFB
:1047A00007D8DFE803F0340234024FF0010388F841
:1047B000003009F10109B9F1040F04F1040406F114
:1047C000040608F10108C3D1484B059EDFF830917B
:1047D000DFF8308100211970012518F8013B09F834
:1047E000043B1A0718D4AC0044F0020244F003045E
:1047F000002347F8323047F834303D4B994505F1F6
:104800000105EAD196F8009089F0010233E64FF0F5
:10481000000388F80030CCE700F0DEF8AC0007EBCE
:10482000451300F10802002837D05A60314B47F891
:10483000343000F0D1F844F0010307EBC30200F17B
:10484000080100B351602C4A47F83320CCE7B1F59A
:10485000A06F7FF4C2AE00224FF001090BE642F2D6
:1048600021329142F7D0B8E66A88002A7FF4B5AECB
:10487000224C89000C448146217821F002012170EC
:10488000F9E5022002E7194B44F001021B7847F8D2
:104890003200164A01331370A6E7144B134A1B78F3
:1048A000AC00013347F834001370C2E74028844657
:1048B00028BF4FF0400C04EB0C03CCEB00004FEA98
:1048C0000C48029300224FF00109D9E53417FF1F6D
:1048D0002C17FF1F1017FF1FAC16FF1F0017FF1F1D
:1048E0003817FF1FA41AFF1F5816FF1F2917FF1F95
:1048F000D420074088004000C8004000C020074086
:10490000C4200740109800002DE9F041274C03F027
:104910001DFA002204F1880023461A605A60083309
:1049200083424FF00001F8D12148224A0368DFF8A2
:104930009CE0214E214D224FDFF894C0DFF8948097
:1049400043F480230360136843F040731360032330
:104950008EF80030A023337002F5C922C4F3072378
:1049600000F528302B708030C4F3074310323B70C1
:10497000240EFF230470134D8CF80030124888F881
:1049800000301370012306F8AC3C4FF400140EF80D
:10499000441C7026102107F82C3C2E70046082F80D
:1049A000F810AEF1440EBDE8F08100BF0000FF1F1B
:1049B0003480044000D80040402107409C2007403C
:1049C000B020074035E400E004E100E04421074066
:1049D000802007408820074072B60D480268B2FA6E
:1049E00082F30B2B10DC4FF00041D94022EA010288
:1049F000026062B6074803EBC303DB00C218002164
:104A0000C15010465160704762B60020704700BF29
:104A10008408FF1FD003FF1F0D4B0E4AC31AA2FBD1
:104A200003231B090B2B0CD80B4A127852B972B610
:104A30000A484FF00041026821FA03F31A4302606A
:104A400062B67047064A1278002AF0D0FFF7ACBA77
:104A5000D003FF1F398EE3382917FF1F8408FF1F7B
:104A60003417FF1F38B50F4D286878B14388028886
:104A7000C118013393420C7A02D24380204638BDDC
:104A8000FFF7CAFF002320462B6038BD064B1B787A
:104A90002BB10320FFF754FA28600028E6D14FF02D
:104AA000FF3038BD4817FF1F3417FF1F10B5094CE2
:104AB000206818B143881844007A10BD064B1B7853
:104AC0002BB10320FFF73CFA20600028F2D14FF011
:104AD000FF3010BD4817FF1F3417FF1F044B054A56
:104AE0001B6890881BB11A885B88D31A18447047DA
:104AF0004817FF1FA41AFF1F0B4B1B789BB110B563
:104B00000A4C206848B1FFF787FF00230320236089
:104B1000FFF716FA30B1FFF77FFF0320FFF710FA17
:104B20000028F8D110BD70473417FF1F4817FF1F2A
:104B30002DE9F04FDFF8F89083B0012289F80020CA
:104B4000019169B3DFF8EC80354F019E8346D8F8B8
:104B50000000B0B3334D4488C4F14001B14228BFD6
:104B6000314604EB010E00221FFA8EFE2A70761ADF
:104B7000A0F802E000F1080251B1013C224459447E
:104B80001BF8014B02F8014F8B45F9D1B0F802E058
:104B9000BEF13F0F0BD8244A05211170002ED6D14B
:104BA0000198002389F8003003B0BDE8F08F40225F
:104BB000028001460420FFF739FA0022C8F80020DD
:104BC000E9E73A7822B3194C164D4FF0010A07E095
:104BD000013C16D02A78A2B900F074FC3A78BAB138
:104BE0000420FFF7CBF90728F2D889F800A0FFF7D7
:104BF000F3FEC8F800000028ADD10D4B013C187041
:104C0000E8D101234FF0FF302B7003B0BDE8F08FE7
:104C100000234FF0FF3089F8003003B0BDE8F08F7B
:104C20003417FF1F4417FF1F3C17FF1F21480100C7
:104C30003D17FF1F4017FF1F00B583B002AB0121D6
:104C400003F8010D1846FFF773FF03B05DF804FB8E
:104C500038B50E4D0E4C28680123237028B14088CA
:104C600000232370C0F1400038BD0A4B1B7813B9F4
:104C70000020207038BD0420FFF780F90728F7D8FE
:104C8000FFF7AAFE28600028E9D1F1E74017FF1FCF
:104C90003D17FF1F3417FF1FF8B5114B1B788BB161
:104CA000104E114D346801272F7064B10F4A63888C
:104CB00000271770214623800420FFF7B7F93760DB
:104CC00000232B70F8BDFFF787FE084B28B1014683
:104CD00004201C70FFF7AAF9F2E71F70F0E700BF8D
:104CE0003417FF1F4017FF1F3D17FF1F3C17FF1F03
:104CF00038B50E4B1B7873B90D4C216861B103F0C8
:104D0000FF054B880B800420FFF790F9256038BD24
:104D1000084B01221A7038BDFFF75EFE0028F7D05D
:104D20000146BDE838400420FFF780B93D17FF1F5A
:104D30004017FF1F3C17FF1F0368C9B21B681847C5
:104D40000368C9B21B6818470368C9B21B681847D3
:104D50000368C9B21B68184708B5084600F016FF7B
:104D6000012008BD08B5084600F010FF012008BD6D
:104D700038B508460D4603F063FC04460146284654
:104D800000F00EFF204638BD10B508461446114607
:104D900000F006FF204610BD00F0E0BF08B5084651
:104DA00000F0CCFE003018BF012008BD08B5084651
:104DB00000F0A2FE003018BF012008BD08461146D1
:104DC00000F016BE084600F05DBE00BF084600F0C9
:104DD000F3BD00BF00F080BD034B03EB5100B0FBFF
:104DE000F1F000F0BBBC00BF002A751510B5064BF2
:104DF000144603EB5100B0FBF1F000F0AFFC20468D
:104E0000BDE8104000F032BD002A751500F08EBFDD
:104E100000F058BF00F046BF00F026BF00F030BFE2
:104E2000704700BF08B5084601F018FA012008BD18
:104E300008B5084601F012FA012008BD38B5084649
:104E40000D4603F0FDFB04460146284601F05EFADC
:104E5000204638BD10B508461446114601F056FAF2
:104E6000204610BD01F030BB08B5084601F0CEF970
:104E7000003018BF012008BD08B5084601F0A4F9AC
:104E8000003018BF012008BD0846114601F034B9B2
:104E9000084601F06BB900BF084601F011B900BF28
:104EA00001F0B2B8034B03EB5100B0FBF1F001F09D
:104EB00001B800BF002A751510B5064B144603EB68
:104EC0005100B0FBF1F000F0F5FF2046BDE81040C6
:104ED00001F064B8002A751501F0DEBA01F0A8BA35
:104EE00001F096BA01F076BA01F080BA0368064A7A
:104EF0001B68934205D110B5C8B201F0AFF901208B
:104F000010BDC9B2184700BF314E00000368064A01
:104F10001B68934205D110B5C8B201F09FF901207A
:104F200010BDC9B2184700BF314E00000368064AE1
:104F30001B68934205D110B5C8B201F08FF901206A
:104F400010BDC9B2184700BF314E00000368064AC1
:104F50001B68934205D110B5C8B201F07FF901205A
:104F600010BDC9B2184700BF314E0000704700BFE6
:104F700008B5084601F0EAFC012008BD08B508465E
:104F800001F0E4FC012008BD38B508460D4603F0E9
:104F900057FB04460146284601F0E2FC204638BD96
:104FA00010B508461446114601F0DAFC204610BD43
:104FB00001F066BD08B5084601F0A8FC003018BF36
:104FC000012008BD08B5084601F07EFC003018BF7E
:104FD000012008BD0846114601F04ABC084601F010
:104FE00071BC00BF084601F027BC00BF01F0EEBB5A
:104FF000034B03EB5100B0FBF1F001F063BB00BFCA
:10500000000E270710B5064B144603EB5100B0FB0A
:10501000F1F001F057FB2046BDE8104001F0A0BBC5
:10502000000E270701F014BD01F0DEBC01F0CCBC7E
:1050300001F0ACBC01F0B6BC0368064A1B689342A1
:1050400005D110B5C8B201F081FC012010BDC9B274
:10505000184700BF7D4F00000368064A1B68934253
:1050600005D110B5C8B201F071FC012010BDC9B264
:10507000184700BF7D4F00000368064A1B68934233
:1050800005D110B5C8B201F061FC012010BDC9B254
:10509000184700BF7D4F00000368064A1B68934213
:1050A00005D110B5C8B201F051FC012010BDC9B244
:1050B000184700BF7D4F0000704700BF08B5084685
:1050C00001F058FF012008BD08B5084601F052FF65
:1050D000012008BD38B508460D4603F0B1FA044674
:1050E0000146284601F050FF204638BD10B508465D
:1050F0001446114601F048FF204610BD01F0D4BF10
:1051000008B5084601F034FF003018BF012008BD83
:1051100008B5084601F00AFF003018BF012008BD9D
:105120000846114601F09ABE084601F0D1BE00BF04
:10513000084601F077BE00BF01F018BE034B03EB39
:105140005100B0FBF1F001F06BBD00BF000E27076E
:1051500010B5064B144603EB5100B0FBF1F001F023
:105160005FFD2046BDE8104001F0CABD000E2707D4
:1051700001F082BF01F04CBF01F03ABF01F01ABF4D
:1051800001F024BF0368064A1B68934205D110B59D
:10519000C8B201F0EFFE012010BDC9B2184700BF30
:1051A000C95000000368064A1B68934205D110B538
:1051B000C8B201F0DFFE012010BDC9B2184700BF20
:1051C000C95000000368064A1B68934205D110B518
:1051D000C8B201F0CFFE012010BDC9B2184700BF10
:1051E000C95000000368064A1B68934205D110B5F8
:1051F000C8B201F0BFFE012010BDC9B2184700BF00
:10520000C9500000704700BF08B5084602F060F9B9
:10521000012008BD08B5084602F05AF9012008BD72
:1052200038B508460D4603F00BFA044601462846F9
:1052300002F058F9204638BD10B50846144611460C
:1052400002F050F9204610BD02F0DCB908B508465E
:1052500002F01EF9003018BF012008BD08B508464D
:1052600002F0F4F8003018BF012008BD08461146CE
:1052700002F0C0B8084602F0E7B800BF084602F0E6
:105280009DB800BF02F064B8034B03EB5100B0FBC4
:10529000F1F001F0D9BF00BF000E270710B5064B93
:1052A000144603EB5100B0FBF1F001F0CDFF2046B6
:1052B000BDE8104002F016B8000E270702F08AB9C8
:1052C00002F054B902F042B902F022B902F02CB94E
:1052D0000368064A1B68934205D110B5C8B202F0B4
:1052E000F7F8012010BDC9B2184700BF15520000E1
:1052F0000368064A1B68934205D110B5C8B202F094
:10530000E7F8012010BDC9B2184700BF15520000D0
:105310000368064A1B68934205D110B5C8B202F073
:10532000D7F8012010BDC9B2184700BF15520000C0
:105330000368064A1B68934205D110B5C8B202F053
:10534000C7F8012010BDC9B2184700BF15520000B0
:10535000704700BF08B5084602F0DAFB012008BD1F
:1053600008B5084602F0D4FB012008BD38B5084650
:105370000D4603F065F904460146284602F0D2FBCB
:10538000204638BD10B508461446114602F0CAFB47
:10539000204610BD02F056BC08B5084602F098FB46
:1053A000003018BF012008BD08B5084602F06EFBAA
:1053B000003018BF012008BD0846114602F03ABB74
:1053C000084602F061BB00BF084602F017BB00BFF1
:1053D00002F0DCBA084602F0E5B900BF10B5084695
:1053E000144602F0DFF92046BDE8104002F094BAFE
:1053F00002F010BC02F0DABB02F0C8BB02F0A8BB9E
:1054000002F0B2BB0368064A1B68934205D110B58F
:10541000C8B202F07DFB012010BDC9B2184700BF21
:10542000615300000368064A1B68934205D110B51A
:10543000C8B202F06DFB012010BDC9B2184700BF11
:10544000615300000368064A1B68934205D110B5FA
:10545000C8B202F05DFB012010BDC9B2184700BF01
:10546000615300000368064A1B68934205D110B5DA
:10547000C8B202F04DFB012010BDC9B2184700BFF1
:1054800061530000704700BF08B5FCF7B9FBFBF79C
:1054900081FE00F017F8FAE7FFF72EBBFFF706BB17
:1054A000FFF7E0BAFFF71ABBFFF7F6BBFFF7D0BB79
:1054B00008461146FFF73CBB0846FFF7BDBB00BFDF
:1054C000704700BF38B52C4C237803B138BD012399
:1054D0002370FFF703FB002842D100F0E3FB002814
:1054E0003BD100F095FF002834D101F06DFA70BB7C
:1054F00001F07EFD40BB02F029F810BB02F046FB34
:10550000E0B900232370EFF30583002BDED1EFF326
:10551000108172B6194B186828B3194C227812BB47
:1055200045691D60012323700DB3AA6101B962B6FC
:1055300000254577836898472570C7E7FFF7A2FFE6
:10554000DFE7FFF705FFD9E7FFF75CFED3E7FFF7DB
:10555000B3FDCDE7FFF70AFDC7E7FFF761FCC0E742
:10556000FFF7AEFFB9E70029B0D162B638BD054BF1
:105570001D600029DCD1DAE74D17FF1F641AFF1FF9
:10558000681AFF1F601AFF1F08B5104C08E0236857
:1055900059050DD423681A050FD42368DB0411D4F0
:1055A00023685803F3D5FEF783FD23685905F1D529
:1055B00000F0FAFB23681A05EFD500F0ABFF236873
:1055C000DB04EDD501F06EFAEAE700BF3480044059
:1055D00008B5FFF7D9FF00BF014B10221A807047B2
:1055E00000200540704700BF094908B50B6830B17D
:1055F0006A461844A2F50052904202D2086018464A
:1056000008BD02F005FD0C2303604FF0FF3008BD1C
:10561000F808FF1FEFF3138070B9EFF310836BB935
:10562000EFF305825AB94FF48070EFF311832BB179
:10563000984228BF184670474FF0FF3070470F2A36
:1056400001D81846F1E7014BD05CEEE7F0E300E04B
:10565000084A1378802B01D0002070470649074B79
:1056600007480860002119701378802BFCD00120B6
:10567000704700BF03E007404480044001E007405A
:1056800000002822094A1378012B01D0002070471E
:1056900003F1804303F5FC23602119701378802BFC
:1056A000FCD1034B034A1A600120704703E0074016
:1056B00044800440000006022DE9F84F214B1B688E
:1056C00007460BB101221A70DFF888901E4D99F839
:1056D0000040DFF884801D4E01343F2C8ABF4FF01C
:1056E000000A5FFA84FA5446AB462B78A34216D1DF
:1056F000FFF790FF40281FDC33791B06F5D59BF898
:10570000003001333F2B86BF00221346DAB218F86F
:105710000330DBB2F3712A702B78A342E8D00C4936
:105720000A4BFFB208F804700120BC22087089F807
:1057300000A0DA70BDE8F88FFF28D6DDFFF7C2FEC3
:10574000D3E700BFE017FF1FDD17FF1F00A00640D3
:10575000DC17FF1FE417FF1F5817FF1F324A33499A
:105760001368F0B543F4806313600A78304F314E0C
:10577000314D324C32490023152A3B7033702B7067
:1057800023700B7045D01B2A3ED082B32D4B1B7863
:10579000052B34D01A2B41D0012B1BD01F281FD82A
:1057A000002002460125284B284C1A7028495D70BC
:1057B00004224FF0020E88273C26402598729A70EA
:1057C0004FF0004083F813E05A751F74DE702570A7
:1057D0000860F0BD1F4B4FF451721F281A60DFD9CB
:1057E000C0F34432C0F3471500F01F00DBE71A4B4B
:1057F00040F213321A60134B1B78052BCAD1174B9A
:105800004FF451721A60C9E7154B40F213321A6017
:10581000BCE7144B40F213321A60B7E7124B4FF457
:1058200051721A60BAE700BF348004409817FF1F16
:105830005417FF1F5517FF1FE417FF1FDD17FF1F2A
:10584000DC17FF1FFC08FF1F00A006401FE400E05C
:1058500000E100E044A0044040A004401CC004401B
:105860003C90044018C0044038900440194B19493A
:105870009B7803F0EC0200F003031343420700F0AF
:105880000F0248BF43F01003042A8B701CD0114B49
:10589000104A5B79C10603F0EF0348BF43F01003E1
:1058A00053719379820603F0EF030A4A48BF43F02D
:1058B00010039371C30506D553781178DBB241F01C
:1058C00020011170537070478B7943F040038B7146
:1058D000DDE700BF00A00640284B1B685B0533D501
:1058E00010B5274C237823B1FFF7ECFD2378002B6C
:1058F000FAD12448244A254B4FF00044002104608B
:10590000D1701B78152B20D01B2B32D01BB9204B0C
:1059100040F203121A601F4B1B7803F07F03052B24
:105920001DD01A2B20D0012B03D11B4B40F20312A8
:105930001A601A4B1A481B491A68002303700B702F
:105940000AB10123137010BD7047174B40F20312C8
:105950001A60104B1B7803F07F03052BE1D1134B2A
:1059600040F203121A60E4E7114B40F203121A608E
:10597000DFE7104B40F203121A60CCE7348004409A
:10598000DC17FF1F80E100E000A006409817FF1F12
:1059900040A00440FC08FF1F44A004405017FF1F14
:1059A0005417FF1F5517FF1F18C004401CC00440A8
:1059B000389004403C9004400A4A38B505461378B4
:1059C00003F0FF04002BFAD101212846FEF7AAF9C3
:1059D00021462846FEF792F9034A044B52F8352037
:1059E0001A6038BDDC17FF1FA8930000E017FF1FE7
:1059F00009B140F080001E4A137898421BD010B4C1
:105A00001C4C2468640513D503F07F03052B2AD0B2
:105A10001A2B24D0012B14D0002900F07F0114BFD1
:105A200060234423052915D01A290ED0012903D05B
:105A300010705DF8044B70470F4943F440730B60DE
:105A4000F6E70D4B00241C60E6E70C4943F4407375
:105A50000B60EDE70A4943F440730B60E8E7074B3E
:105A600000241C60D8E7064B00241C60D4E700BF6C
:105A7000FC08FF1F3480044044A0044038900440D8
:105A80001CC00440174A137883420ED01649096897
:105A9000490509D5152B20D01B2B1AD05BB1152831
:105AA0000DD01B2810D008B1107070470F4B40F27A
:105AB00013311960F8E70D4915280B60F1D10C4B33
:105AC00040F213311960EFE70A4B40F213311960CD
:105AD000EAE7084B00211960E1E7054B0021196056
